:020000040800F2
:10000000C004002001010008BF1300087D12000891
:10001000BD1300086D010008B517000800000000BE
:10002000000000000000000000000000B9140008FB
:100030006F01000800000000C1130008BB14000895
:100040001B0100081B0100081B0100081B01000820
:100050001B0100081B0100081B0100081B01000810
:100060001B0100081B0100081B0100081B01000800
:100070001B0100081B0100081B0100081B010008F0
:100080001B0100081B0100081B0100081B010008E0
:100090001B0100081B0100081B0100081B010008D0
:1000A0001B0100081B0100081B0100081B010008C0
:1000B0001B0100081B0100081B0100081B010008B0
:1000C0001B0100081B0100081B010008C5130008E4
:1000D0001B010008A91700081B0100081B010008EC
:1000E0001B0100081B0100081B010008DFF80CD0F1
:1000F00000F02AF800480047F5170008C004002067
:100100000648804706480047FEE7FEE7FEE7FEE7B1
:10011000FEE7FEE7FEE7FEE7FEE7FEE71D15000847
:10012000ED000008D2B201E000F8012B491EFBD21D
:1001300070470022F6E710B513460A4604461946F2
:10014000FFF7F0FF204610BD064C074D06E0E068C3
:1001500040F0010394E8070098471034AC42F6D30E
:10016000FFF7C8FF8C180008AC180008FEE77047BE
:1001700072B6FEE710B590F821100022022905D0D2
:100180000421816380F82020012010BD01680B68E4
:1001900023F00E030B6001680B6823F001030B6072
:1001A00090F84030C46B012101FA03F3636080F8DA
:1001B000211080F82020104610BD000010B590F8E6
:1001C00021100024022903D00421816301243DE091
:1001D00001680A6822F00E020A6001680A6822F0CB
:1001E00001020A601A4A0168914201D1012121E00D
:1001F000174A1432914201D110211BE0144A2832CF
:10020000914201D1891515E0114A3C32914201D148
:1002100089140FE00E4A5032914202D14FF48031DE
:1002200008E00B4A6432914202D14FF4801101E0A0
:100230004FF08071064A083A5160012180F8211080
:10024000002180F82010416B01B18847204610BD85
:100250000800024070B5044600F008F90546601C2D
:1002600002D004480078044400F000F9401BA0428A
:10027000FAD370BD080000202DE9F84FDFF8B891DF
:100280000024A9F1040B23460F2709F1040AABF15E
:10029000040EC9E00125A5402A40AA427DD1674E3F
:1002A000D1F804C0ACEB0608B44532D014DCBCF184
:1002B000030F3AD009DCBCF1000F2AD0BCF1010FCA
:1002C0001CD0BCF1020F31D11DE0BCF1110F17D0D1
:1002D000BCF1120F2AD119E0B8F5881F19D006DC3D
:1002E000B8F5803F15D0B8F5801F1FD111E0B8F5E3
:1002F000001F0ED0B8F5041F18D10AE0CB6815E036
:10030000CB681B1D12E0CB6808330FE0CB680C33C1
:100310000CE08B682BB1012B4FF0080303D0456133
:1003200004E0042302E0056100E00023FF2A01D875
:10033000064601E000F104064FEA840501D9A5F163
:100340002005D6F8008007FA05FC28EA0C0803FA15
:1003500005F548EA0508C6F800804D68ED0062D54D
:10036000374DAE6946F00106AE61AD6924F0030673
:1003700005F001050095334D06EB050CDCF808503F
:10038000A607360F07FA06F825EA0805DFF8B88051
:10039000404503D14FF0000817E044E0DFF8AC809F
:1003A000404502D14FF001080FE0DFF8A48040453E
:1003B00002D14FF0020808E0DFF89880404502D1F2
:1003C0004FF0030801E04FF0040808FA06F848EA85
:1003D0000508CCF808804D68D9F80060ED024D465C
:1003E00001D5164300E096432E604D68DAF80060B0
:1003F000AD02554601D5164300E096432E604D6888
:10040000DBF80060AD035D4601D5164300E096437E
:100410002E604D68DEF80060ED03754601D5164389
:1004200000E096432E60641C0D682A46E5407FF488
:1004300031AFBDE8F88F0000080401400000111042
:10044000001002400000014000080140000C014083
:1004500000100140001401408068084000D00120D5
:1004600070470AB1016170470904FBE701488068E1
:10047000704700000800002002488168027811449B
:100480008160704708000020074810B5016841F0FE
:1004900010010160032000F075F80F2000F006F84D
:1004A00000F024F8002010BD0020024070B50D4D72
:1004B00004464FF47A712878B1FBF0F00A490968D4
:1004C000B1FBF0F000F09FFC48B9102C07D20022DD
:1004D0002146501E00F036F800206C6070BD0120EF
:1004E00070BD000008000020140000200C4808B572
:1004F000816941F001018161816901F0010100918F
:10050000C16941F08051C161C06900F08050009024
:100510000448416821F0E06141F00071416008BD8C
:100520000010024000000140002809DB00F01F021B
:10053000012191404009800000F1E020C0F8001145
:1005400070470000F0B40E4B1B680C46C3F3022347
:10055000C3F10705042D00D90425191D072901D26F
:10056000002300E0DB1E012606FA05F1491E2140AA
:1005700099409E40761E16403143F0BC01F01BB9F5
:100580000CED00E0064900F0070208684FF6FF0393
:10059000184040EA0220034A1043086070470000F8
:1005A0000CED00E00000FA052DE9F0470F460500CC
:1005B00061D0434E306800F00700B84209D230687D
:1005C00020F0070038433060306800F00700B84280
:1005D00051D128683B4C810712D5400703D560688C
:1005E00040F4E06060602878000703D5606840F45C
:1005F000605060606068A96820F0F00008436060A7
:100600002878C00728D06868012810D021680228FF
:1006100010D0890700292EDA616821F00301014317
:100620006160FFF723FF804641F288390DE02168C1
:100630008903EFE78901EDE7FFF718FFA0EB080159
:10064000494502D90320BDE8F0876068696800F079
:100650000C00B0EB810FEFD1306800F00700B8421A
:100660000BD9306820F0070038433060306800F064
:100670000700B84201D00120E5E72878400705D5FA
:100680006068E96820F4E06008436060287800074B
:1006900006D56068296920F4605040EAC1006060B6
:1006A00000F038F86168084AC1F30311515CC84092
:1006B0000649086006480068FFF7F8FE0020C2E718
:1006C00000200240001002407218000814000020B0
:1006D0000C0000200448054900684968044AC1F339
:1006E0000221515CC84070471400002000100240F5
:1006F000821800080448054900684968044AC1F3A3
:10070000C221515CC8407047140000200010024014
:10071000821800080E4A51680E4801F00C03042BA1
:1007200011D0082B0FD10C48C1F38343C903C05C1F
:100730000AD55168084AC1F34041921E515C054AEE
:100740005043B0FBF1F07047044948437047000044
:100750000010024000127A006218000800093D00F3
:100760002DE9F84F040070D02078C04DC00749D063
:100770006868C0F38100012807D06868C0F3810071
:10078000022809D16868C00306D52868800339D5D6
:1007900060680028E7D035E06068B0F5803F0BD096
:1007A00010B1B0F5A02F11D0286820F48030286057
:1007B000286820F4802002E0286840F48030286017
:1007C000606890B1FFF752FE06460AE0286840F4E0
:1007D00080202860F0E700BFFFF748FE801B6428F8
:1007E00073D828688003F7D50CE0FFF73FFE064674
:1007F00005E000BFFFF73AFE801B6428F0D82868A8
:100800008003F7D420789A4E80074FF001094FF00B
:10081000000839D5686810F00C0F07D06868C0F37D
:100820008100022809D16868C00306D428688007BF
:1008300014D52069012808D110E02069B0B1C6F8AC
:100840000090FFF713FE074605E00AE1FFF70EFEF2
:10085000C01B0228C4D828688007F7D528686169BA
:1008600020F0F80040EAC10028600DE0C6F80080E2
:10087000FFF7FCFD074604E0FFF7F8FDC01B022868
:1008800023D828688007F7D4207800072CD579482A
:10089000A169D9B1C0F80090FFF7E8FD074604E070
:1008A000FFF7E4FDC01B02280FD8686A8007F7D560
:1008B00071484FF4FA510068B0FBF1F0009000BFAE
:1008C0000098411E0091FAD20EE080E0C0F800804E
:1008D000FFF7CCFD074604E0FFF7C8FDC01B022868
:1008E00075D8686A8007F7D42078400760D5E86932
:1008F0000027C00008D4E86940F08050E861E8694A
:10090000012700F0805000905C480168C90513D4AD
:100910000168834641F480710160FFF7A7FD8246BC
:1009200006E000BFFFF7A2FDA0EB0A0064284ED846
:10093000DBF80000C005F5D5E06801280AD008B151
:10094000052813D0286A20F001002862286A20F0C8
:10095000040002E0286A40F001002862E06841F2E9
:10096000883B98B1FFF782FD82460BE0286A40F091
:1009700004002862EEE700BFFFF778FDA0EB0A0154
:1009800059455AD8286A8007F6D50CE0FFF76EFD66
:10099000824605E0FFF76AFDA0EB0A0159454CD8F5
:1009A000286A8007F6D41FB1E86920F08050E8611A
:1009B000E06988B36968C1F38101022944D0022843
:1009C000C6F8608004D0FFF751FD044638E034E0FB
:1009D000FFF74CFD074604E0FFF748FDC01B022867
:1009E0002BD828688001F7D4206AB0F5803F05D164
:1009F0006868A16820F4003008436860D4E9080101
:100A00000843696821F4741108436860C6F860906F
:100A1000FFF72CFD044606E025E000BFFFF726FDAA
:100A2000001B022809D828688001F7D51BE000BF09
:100A3000FFF71CFD001B022802D90320BDE8F88F38
:100A400028688001F4D40EE00128F7D06868226A93
:100A500000F48031914204D1616A00F47010884240
:100A600001D00120EAE70020E8E700000010024082
:100A70000000424280044242140000200070004006
:100A80007047000038B50446006842688168C94371
:100A90004B0606D5CB0704D1D3435B0601D4216CAA
:100AA00005E08B0708D4D3431B0605D4616C01B065
:100AB0002046BDE8304008478B0601D54B0646D49A
:100AC000D3439B0643D44B060AD494F85130032BEE
:100AD0003ED0636D43F004036365C368836800938D
:100AE000890609D4616D41F0010161658168009159
:100AF000016821F040010160606D002827D0206866
:100B0000416821F0E0014160012084F85100900724
:100B100022D02068416821F003014160104DE06C53
:100B200040B14563E06CFFF749FB18B1606D40F0E0
:100B300040006065A06C002809D04563A06CFFF7F9
:100B40003DFB002803D0606D40F04000606538BD7B
:100B5000C1688068009038BD2046FFF791FF38BD1E
:100B6000D113000870B5040009D0606A002540B1B7
:100B700025616561A56294F8510040B10CE0012047
:100B800070BD6068B0F5827FF4D0E561F2E784F86B
:100B90005050204600F040F8022084F851002068B0
:100BA000016821F040010160A088218900F4827071
:100BB00001F404410843A18901F400610843217C48
:100BC00001F002010843217D01F001010843218B5E
:100BD00001F400710843217F01F03801084394F8C3
:100BE000201001F080010843218D01F400510843D9
:100BF00021680860A069042101EA1040216848606A
:100C00002068C16921F40061C1616565012084F833
:100C10005100002070BD000030B585B00024009464
:100C20000194029403940068184988422BD1184813
:100C3000816941F480518161816901F4805104919D
:100C4000816941F0040181618069124D00F0040066
:100C50000490A02000900220019003200390694698
:100C60002846FFF709FB4020CDE9000469462846E5
:100C70000294FFF701FB002211462320FFF762FCDC
:100C80002320FFF751FC05B030BD000000300140CB
:100C900000100240000801402DE9F84F044690F88A
:100CA00050000026984615468A4601280CD0012798
:100CB00084F85070FFF7DAFB814694F85100B34690
:100CC000012804D002269AE00220BDE8F88FBAF18C
:100CD000000F6FD0002D6DD0032084F85100C4F8B0
:100CE00054B0C4F830A0A586E586C4F838B0A4F89E
:100CF0003CB0A4F83EB0C4F844B0C4F840B0A0681A
:100D0000B0F5004F09D12068016821F04001016071
:100D10002068016841F4804101602068016849064B
:100D200003D4016841F040010160E068B0F5006F54
:100D3000606803D058B3012D29D049E008B1012DD6
:100D40001FD1206B21680088C86006E02068816898
:100D5000890709D5216B0988C160206B801C20633D
:100D6000E08E401EE0860CE0FFF780FBA0EB09015F
:100D7000414503D3B8F1FF3F03D006E0B8F1000FBF
:100D800003D0E08E0028E1D125E0032635E0206B7A
:100D900021680078087306E02068816889070AD511
:100DA000216B09780173206B401C2063E08E401E8C
:100DB000E0860DE01FE0FFF759FBA0EB090141457C
:100DC00003D3B8F1FF3F03D0DFE7B8F1000FDCD069
:100DD000E08E0028E0D14A464146204600F000FB64
:100DE00008B120206065A06818B92068C1688068D3
:100DF0000090606D08B1012601E084F8517084F81C
:100E000050B0304661E710B5401EB0F1807F01D38D
:100E1000012010BD4FF0E02460610F21601700F049
:100E2000CAFC0020A06107202061002010BD70478F
:100E3000704710F8411F407808437047F8B50168C3
:100E400004460868CA684B6910F00F0F4FF00005A0
:100E50005AD003F0010602F49077374365D0C107FA
:100E600005D0D10503D5616C41F0010161644107F2
:100E700005D5D90703D0616C41F002016164810797
:100E800005D5D90703D0616C41F004016164010705
:100E900007D502F02001314303D0616C41F0080115
:100EA0006164616C00293BD0800604D5900602D5B0
:100EB000204600F063FB20684069616CC0F380103D
:100EC00001F00801014320462BD000F030FB2068E0
:100ED0004069400621D52068143050E8001F21F0F9
:100EE000400140E80012002AF5D1E06BA8B16D493D
:100EF0004163E06BFFF762F9002811D0E06B416BB2
:100F000001B0BDE8F040084783060ED593060CD526
:100F10002046BDE8F84000F031BB2046FFF788FFCF
:100F2000F8BDFFF785FF6564F8BD266B2023012E11
:100F30007CD1C6067AD5D60678D508684868009070
:100F400048694FF00206400640D5E16B08684068EA
:100F50000004000CE8D0A28D8242E5D9E0858869C2
:100F600020282DD020680C3050E8001F21F480711B
:100F700040E80012002AF5D12168143151E8000F31
:100F800020F0010041E80002002AF5D12068143069
:100F900050E8001F21F0400140E80012002AF5D17E
:100FA00084F84230256320680C3050E8001F21F09F
:100FB000100140E80012002AF5D1E06BFFF7DAF8E3
:100FC0006663A08DE18D401A81B22AE0A08DE18D8B
:100FD000401A81B2E08D0028A6D00029A4D0226852
:100FE0000C3252E8000F20F4907042E80007002F06
:100FF000F5D12068143050E8002F22F0010240E8BB
:101000000027002FF5D184F84230256320680C308A
:1010100050E8002F22F0100240E80023002BF5D109
:1010200066632046FFF703FFF8BDFFE705062BD5F3
:10103000150629D594F841002128F5D1A068B0F50E
:10104000805F01D12069B0B1206A411C2162216812
:1010500000784860E08C401E0004000CE084E3D17E
:101060002068C16821F08001C1602068C16841F03A
:101070004001C160D8E7206A0088C0F308004860DA
:10108000206A801C2062E5E74006CDD55006CBD50E
:10109000CA68204622F04002CA6084F8413000F05D
:1010A000ECF8C1E71F15000870B5040004D094F8EF
:1010B0004100002510B106E0012070BD84F84050C9
:1010C000204600F023F8242084F841002068C168FD
:1010D00021F40051C160204600F0B2FA2068016995
:1010E00021F4904101612068416921F02A014161A8
:1010F0002068C16841F40051C1606564202084F813
:10110000410084F842006563002070BD30B585B0B1
:1011100000240094019402940394006818498842C2
:101120002CD11848816941F480418161816901F4C1
:1011300080410491816941F0040181618069124D0F
:1011400000F0040004904FF4007000900220019021
:101150000320039069462846FFF78EF82815CDE94D
:101160000004694628460294FFF786F800221146DB
:101170002520FFF7E7F92520FFF7D6F905B030BDA8
:1011800000380140001002400008014090F8423051
:10119000202B01D00220704721B11AB10023036334
:1011A00000F0AABA012070470B4910B5884212D14D
:1011B0004FF6FF7301220949074800F011F806486D
:1011C000FFF737FE2128FAD0BDE81040012203497D
:1011D0000148FFF7DBBF10BD74000020180000209D
:1011E0002DE9F843044690F841001F4616460D4687
:1011F000202802D00220BDE8F8837DB176B100201E
:101200006064212084F84100FFF730F9A68480460D
:10121000E684A068B0F5805F02D003E00120EAE731
:10122000206910B12E4600250EE000260CE080213A
:10123000204600F07CFAA0B9AEB116F8010B216887
:101240004860E08C401EE084E08C43464FF0000292
:1012500000970028EBD14FF04001204600F067FADC
:1012600030B10320C7E735F8020BC0F30800E6E70A
:10127000202084F841000020BDE77047FEE7000011
:1012800070B5084D4FF4005421462846FFF7E4F8A6
:10129000C0F10100C2B221462846BDE87040FFF708
:1012A000E0B8000000100140F0B585B000252048EE
:1012B0000095019502950395816941F010018161C6
:1012C000816901F010010491816941F0200181617F
:1012D000816901F020010491816941F0040181617B
:1012E0008069144E00F004004FF400540490002272
:1012F00021463046FFF7B5F80F4F0122102138463E
:10130000FFF7AFF80220CDE90250009401246946AE
:1013100001943046FEF7B0FF1020CDE90004032011
:10132000CDE9024069463846FEF7A6FF05B0F0BD9C
:10133000001002400010014000080140104810B5A4
:101340000E4901604FF482714160002181600122E9
:10135000C160C0E90412520282613822C0E907214B
:10136000416281620A21C162FFF7FCFB002803D0C1
:10137000BDE81040FEF7FCBE10BD0000003001408B
:101380001C0000200C4810B50A4901604FF4E131FF
:101390004160002181600C22C160C0E904128161BA
:1013A000C161FFF781FE002803D0BDE81040FEF7C1
:1013B000DFBE10BD0038014074000020FEE7FEE7EC
:1013C000704700000148FFF75DBB00001C000020D3
:1013D00010B5406A0021C187C186FFF751FB10BDDF
:1013E00038B50B46009204460022802100F008F830
:1013F000002804D0606D40F020006065032038BDF7
:101400002DE9F8431E46914688460446089DFFF79D
:101410002DF8401B351AFFF729F8074625480068C4
:10142000C0F3CB30684338E0701C37D0FFF71EF8AC
:10143000C01BA84203D215B1009860B32CE020680D
:10144000416821F0E00141606068B0F5827F0BD116
:10145000A068B0F5004F02D0B0F5806F04D12068CD
:10146000016821F040010160A06AB0F5005F09D178
:101470002068016821F4005101602068016841F48E
:1014800000510160012084F85100002084F85000D0
:101490000320BDE8F8830025401E00902068816885
:1014A00038EA010004D000214945BDD10020F0E711
:1014B0000121F9E7140000207047FEF7DDBF30B5C9
:1014C0008FB028216846FEF734FE14210AA8FEF7E3
:1014D00030FE01210804CDE9001000240294022509
:1014E0000491CDE907504FF4E01009906846FFF7EA
:1014F00037F908B172B6FEE70F20CDE90A054FF4BF
:101500008060CDE90C4002210AA80E94FFF74CF848
:10151000002801D072B6FEE70FB030BD704710B59D
:10152000406A0021C185C184FFF782FC10BD0168BB
:101530000C3151E8002F22F4907241E80023002B77
:10154000F5D10168143151E8002F22F0010241E881
:101550000023002BF5D1016B012909D101680C3161
:1015600051E8002F22F0100241E80023002BF5D1B2
:10157000202180F8421000210163704708B590F8DF
:101580004210222901D0022008BD82684FF4805306
:101590009A4201D1016921B1816A9A421BD04AB1B4
:1015A0000AE00268816A5268C2F308020A80816A0E
:1015B000891C08E0026972B10268526802F07F0279
:1015C0000A70816A491C8162C18D491E0904090C97
:1015D000C18503D01BE002685268F1E70168CA6860
:1015E00022F02002CA600168CA6822F48072CA60D0
:1015F00001684A6922F001024A61202180F8421004
:1016000000214163026B012A03D0FFF7CDFD0020CA
:1016100008BD016301680C3151E8002F22F010026F
:1016200041E80023002BF5D101680A68D20602D5F3
:101630000A6849680091818DFFF7F9FBE7E7000030
:1016400070B5044600680169E26821F44051114315
:1016500001612169A0680843616908432168CA687B
:1016600041F20C639A430243CA6020684169A2694F
:1016700021F44071114341611E492068884202D122
:10168000FFF738F801E0FFF725F800EBC00101EBA8
:101690000012606864218000B2FBF0F3B3FBF1F349
:1016A0006FF018067343B2FBF0F5B2FBF0F605EBF2
:1016B0008305322303EB0515B5FBF1F5B6FBF1F617
:1016C00005F0F00505EB0615B2FBF0F6B2FBF0F005
:1016D000B0FBF1F06FF01802504306EB800003EB13
:1016E0000010B0FBF1F0216800F00F002844886082
:1016F00070BD00000038014081628285C2850021F2
:101700004164222180F84210016921B10168CA6850
:1017100042F48072CA6001684A6942F001024A617B
:101720000068C16841F02001C160002070472DE9C8
:10173000F041984617460E460446069D27E0681C71
:1017400025D02DB1FEF792FEA0EB0800A8421ED9CD
:1017500020680C3050E8001F21F4D07140E80012DE
:10176000002AF5D12068143050E8001F21F0010153
:1017700040E80012002AF5D1202084F8410084F8C6
:101780004200002084F840000320BDE8F08120687A
:10179000006836EA000004D00020B842CFD0002014
:1017A000F3E70120F9E700000148FFF747BB00001D
:1017B00074000020FEE70907090E002804DB00F191
:1017C000E02080F80014704700F00F0000F1E020E6
:1017D00080F8141D704702E008C8121F08C1002AD3
:1017E000FAD170477047002001E001C1121F002AA2
:1017F000FBD17047FEF748FEFFF761FEFFF754FD8F
:10180000FFF7C0FDFFF79AFD012210491048FFF7CE
:10181000BDFC104C4FF47A760F4D7710002210214A
:101820002046FEF71EFE0C4933462A88891C0B48C9
:10183000FFF732FA012210212046FEF712FEFFF7D1
:101840001FFD3846FEF706FDE8E7000018000020FF
:101850007400002000080140000000201C0000204F
:10186000010202030405060708090A0B0C0D0E0FFE
:101870001010000000000000000001020304060731
:10188000080900000000010203040000AC18000871
:10189000000000201C000000D6170008C81800082F
:1018A0001C000020A4040000E61700080500010247
:1018B000030405000100000010000000000000000B
:0818C0000024F4000000000008
:04000005080000ED02
:00000001FF
