:020000040800F2
:10000000C0040020010100089B15000859140008D5
:10001000991500086D010008ED19000800000000A6
:10002000000000000000000000000000F1160008C1
:100030006F010008000000009D150008F31600087D
:100040001B0100081B0100081B0100081B01000820
:100050001B0100081B0100081B0100081B01000810
:100060001B0100081B0100081B0100081B01000800
:100070001B0100081B0100081B0100081B010008F0
:100080001B0100081B0100081B0100081B010008E0
:100090001B0100081B0100081B0100081B010008D0
:1000A0001B0100081B0100081B0100081B010008C0
:1000B0001B0100081B0100081B0100081B010008B0
:1000C0001B0100081B0100081B010008A115000806
:1000D0001B010008E11900081B0100081B010008B2
:1000E0001B0100081B0100081B010008DFF80CD0F1
:1000F00000F02AF8004800472D1A0008C00400202C
:100100000648804706480047FEE7FEE7FEE7FEE7B1
:10011000FEE7FEE7FEE7FEE7FEE7FEE7551700080D
:10012000ED000008D2B201E000F8012B491EFBD21D
:1001300070470022F6E710B513460A4604461946F2
:10014000FFF7F0FF204610BD064C074D06E0E068C3
:1001500040F0010394E8070098471034AC42F6D30E
:10016000FFF7C8FFD41A0008F41A0008FEE770472A
:1001700072B6FEE710B590F821100022022905D0D2
:100180000421816380F82020012010BD01680B68E4
:1001900023F00E030B6001680B6823F001030B6072
:1001A00090F84030C46B012101FA03F3636080F8DA
:1001B000211080F82020104610BD000010B590F8E6
:1001C00021100024022903D00421816301243DE091
:1001D00001680A6822F00E020A6001680A6822F0CB
:1001E00001020A601A4A0168914201D1012121E00D
:1001F000174A1432914201D110211BE0144A2832CF
:10020000914201D1891515E0114A3C32914201D148
:1002100089140FE00E4A5032914202D14FF48031DE
:1002200008E00B4A6432914202D14FF4801101E0A0
:100230004FF08071064A083A5160012180F8211080
:10024000002180F82010416B01B18847204610BD85
:100250000800024070B5044600F008F90546601C2D
:1002600002D004480078044400F000F9401BA0428A
:10027000FAD370BD0C0000202DE9F84FDFF8B891DB
:100280000024A9F1040B23460F2709F1040AABF15E
:10029000040EC9E00125A5402A40AA427DD1674E3F
:1002A000D1F804C0ACEB0608B44532D014DCBCF184
:1002B000030F3AD009DCBCF1000F2AD0BCF1010FCA
:1002C0001CD0BCF1020F31D11DE0BCF1110F17D0D1
:1002D000BCF1120F2AD119E0B8F5881F19D006DC3D
:1002E000B8F5803F15D0B8F5801F1FD111E0B8F5E3
:1002F000001F0ED0B8F5041F18D10AE0CB6815E036
:10030000CB681B1D12E0CB6808330FE0CB680C33C1
:100310000CE08B682BB1012B4FF0080303D0456133
:1003200004E0042302E0056100E00023FF2A01D875
:10033000064601E000F104064FEA840501D9A5F163
:100340002005D6F8008007FA05FC28EA0C0803FA15
:1003500005F548EA0508C6F800804D68ED0062D54D
:10036000374DAE6946F00106AE61AD6924F0030673
:1003700005F001050095334D06EB050CDCF808503F
:10038000A607360F07FA06F825EA0805DFF8B88051
:10039000404503D14FF0000817E044E0DFF8AC809F
:1003A000404502D14FF001080FE0DFF8A48040453E
:1003B00002D14FF0020808E0DFF89880404502D1F2
:1003C0004FF0030801E04FF0040808FA06F848EA85
:1003D0000508CCF808804D68D9F80060ED024D465C
:1003E00001D5164300E096432E604D68DAF80060B0
:1003F000AD02554601D5164300E096432E604D6888
:10040000DBF80060AD035D4601D5164300E096437E
:100410002E604D68DEF80060ED03754601D5164389
:1004200000E096432E60641C0D682A46E5407FF488
:1004300031AFBDE8F88F0000080401400000111042
:10044000001002400000014000080140000C014083
:1004500000100140001401408068084000D00120D5
:1004600070470AB1016170470904FBE701488068E1
:10047000704700000C000020024881680278114497
:10048000816070470C000020074810B5016841F0FA
:1004900010010160032000F075F80F2000F006F84D
:1004A00000F024F8002010BD0020024070B50D4D72
:1004B00004464FF47A712878B1FBF0F00A490968D4
:1004C000B1FBF0F000F08CFD48B9102C07D20022EF
:1004D0002146501E00F036F800206C6070BD0120EF
:1004E00070BD00000C000020180000200C4808B56A
:1004F000816941F001018161816901F0010100918F
:10050000C16941F08051C161C06900F08050009024
:100510000448416821F0E06141F00071416008BD8C
:100520000010024000000140002809DB00F01F021B
:10053000012191404009800000F1E020C0F8001145
:1005400070470000F0B40E4B1B680C46C3F3022347
:10055000C3F10705042D00D90425191D072901D26F
:10056000002300E0DB1E012606FA05F1491E2140AA
:1005700099409E40761E16403143F0BC01F037BAD8
:100580000CED00E0064900F0070208684FF6FF0393
:10059000184040EA0220034A1043086070470000F8
:1005A0000CED00E00000FA052DE9F0470F460500CC
:1005B00061D0434E306800F00700B84209D230687D
:1005C00020F0070038433060306800F00700B84280
:1005D00051D128683B4C810712D5400703D560688C
:1005E00040F4E06060602878000703D5606840F45C
:1005F000605060606068A96820F0F00008436060A7
:100600002878C00728D06868012810D021680228FF
:1006100010D0890700292EDA616821F00301014317
:100620006160FFF723FF804641F288390DE02168C1
:100630008903EFE78901EDE7FFF718FFA0EB080159
:10064000494502D90320BDE8F0876068696800F079
:100650000C00B0EB810FEFD1306800F00700B8421A
:100660000BD9306820F0070038433060306800F064
:100670000700B84201D00120E5E72878400705D5FA
:100680006068E96820F4E06008436060287800074B
:1006900006D56068296920F4605040EAC1006060B6
:1006A00000F038F86168084AC1F30311515CC84092
:1006B0000649086006480068FFF7F8FE0020C2E718
:1006C0000020024000100240BA1A00081800002062
:1006D000100000200448054900684968044AC1F335
:1006E0000221515CC84070471800002000100240F1
:1006F000CA1A00080448054900684968044AC1F359
:10070000C221515CC8407047180000200010024010
:10071000CA1A00080E4A51680E4801F00C03042B57
:1007200011D0082B0FD10C48C1F38343C903C05C1F
:100730000AD55168084AC1F34041921E515C054AEE
:100740005043B0FBF1F07047044948437047000044
:100750000010024000127A00AA1A000800093D00A9
:100760002DE9F84F040070D02078C04DC00749D063
:100770006868C0F38100012807D06868C0F3810071
:10078000022809D16868C00306D52868800339D5D6
:1007900060680028E7D035E06068B0F5803F0BD096
:1007A00010B1B0F5A02F11D0286820F48030286057
:1007B000286820F4802002E0286840F48030286017
:1007C000606890B1FFF752FE06460AE0286840F4E0
:1007D00080202860F0E700BFFFF748FE801B6428F8
:1007E00073D828688003F7D50CE0FFF73FFE064674
:1007F00005E000BFFFF73AFE801B6428F0D82868A8
:100800008003F7D420789A4E80074FF001094FF00B
:10081000000839D5686810F00C0F07D06868C0F37D
:100820008100022809D16868C00306D428688007BF
:1008300014D52069012808D110E02069B0B1C6F8AC
:100840000090FFF713FE074605E00AE1FFF70EFEF2
:10085000C01B0228C4D828688007F7D528686169BA
:1008600020F0F80040EAC10028600DE0C6F80080E2
:10087000FFF7FCFD074604E0FFF7F8FDC01B022868
:1008800023D828688007F7D4207800072CD579482A
:10089000A169D9B1C0F80090FFF7E8FD074604E070
:1008A000FFF7E4FDC01B02280FD8686A8007F7D560
:1008B00071484FF4FA510068B0FBF1F0009000BFAE
:1008C0000098411E0091FAD20EE080E0C0F800804E
:1008D000FFF7CCFD074604E0FFF7C8FDC01B022868
:1008E00075D8686A8007F7D42078400760D5E86932
:1008F0000027C00008D4E86940F08050E861E8694A
:10090000012700F0805000905C480168C90513D4AD
:100910000168834641F480710160FFF7A7FD8246BC
:1009200006E000BFFFF7A2FDA0EB0A0064284ED846
:10093000DBF80000C005F5D5E06801280AD008B151
:10094000052813D0286A20F001002862286A20F0C8
:10095000040002E0286A40F001002862E06841F2E9
:10096000883B98B1FFF782FD82460BE0286A40F091
:1009700004002862EEE700BFFFF778FDA0EB0A0154
:1009800059455AD8286A8007F6D50CE0FFF76EFD66
:10099000824605E0FFF76AFDA0EB0A0159454CD8F5
:1009A000286A8007F6D41FB1E86920F08050E8611A
:1009B000E06988B36968C1F38101022944D0022843
:1009C000C6F8608004D0FFF751FD044638E034E0FB
:1009D000FFF74CFD074604E0FFF748FDC01B022867
:1009E0002BD828688001F7D4206AB0F5803F05D164
:1009F0006868A16820F4003008436860D4E9080101
:100A00000843696821F4741108436860C6F860906F
:100A1000FFF72CFD044606E025E000BFFFF726FDAA
:100A2000001B022809D828688001F7D51BE000BF09
:100A3000FFF71CFD001B022802D90320BDE8F88F38
:100A400028688001F4D40EE00128F7D06868226A93
:100A500000F48031914204D1616A00F47010884240
:100A600001D00120EAE70020E8E700000010024082
:100A70000000424280044242180000200070004002
:100A8000704790F85100704738B5044600684268D6
:100A90008168C9434B0606D5CB0704D1D3435B0617
:100AA00001D4216C05E08B0708D4D3431B0605D481
:100AB000616C01B02046BDE8304008478B0601D587
:100AC0004B0646D4D3439B0643D44B060AD494F832
:100AD0005130032B3ED0636D43F004036365C3685C
:100AE00083680093890609D4616D41F00101616555
:100AF00081680091016821F040010160606D00286B
:100B000027D02068416821F0E0014160012084F88D
:100B10005100900722D02068416821F00301416014
:100B2000104DE06C40B14563E06CFFF747FB18B136
:100B3000606D40F040006065A06C002809D04563FE
:100B4000A06CFFF73BFB002803D0606D40F0400035
:100B5000606538BDC1688068009038BD2046FFF7E9
:100B60008FFF38BDAD15000870B5040009D0606A6C
:100B7000002540B125616561A56294F8510040B13E
:100B80000CE0012070BD6068B0F5827FF4D0E561B3
:100B9000F2E784F85050204600F040F8022084F834
:100BA00051002068016821F040010160A08821897E
:100BB00000F4827001F404410843A18901F400614A
:100BC0000843217C01F002010843217D01F001016D
:100BD0000843218B01F400710843217F01F03801A3
:100BE000084394F8201001F080010843218D01F49E
:100BF0000051084321680860A069042101EA1040FF
:100C0000216848602068C16921F40061C16165659F
:100C1000012084F85100002070BD000030B585B07F
:100C200000240094019402940394006818498842B7
:100C30002BD11848816941F480518161816901F4A7
:100C400080510491816941F0040181618069124DF4
:100C500000F004000490A0200090022001900320E6
:100C6000039069462846FFF707FB4020CDE90004C2
:100C7000694628460294FFF7FFFA00221146232016
:100C8000FFF760FC2320FFF74FFC05B030BD0000EC
:100C90000030014000100240000801402DE9F84FEB
:100CA000044690F85100984616460F460025012844
:100CB00001D0022598E060684FF0040BB0F5827F08
:100CC00001D1A068F8B194F85000012826D04FF067
:100CD000010984F85090FFF7C9FB8246002F7FD0AE
:100CE000002E7DD084F851B000206065A763A687F0
:100CF000E6872063A086E08620646064A068B0F583
:100D0000004F0DD016E084F851B013460A46204635
:100D1000CDF8008000F06DF8BDE8F88F0220FBE709
:100D20002068016821F0400101602068016821F419
:100D30008041016020680168490603D4016841F0E0
:100D400040010160E068D8B13BE020688168C907D4
:100D500009D0007BA16B0870A06B401CA063E08FE2
:100D6000401EE0870CE0FFF781FBA0EB0A01414544
:100D700003D3B8F1FF3F03D006E0B8F1000F03D072
:100D8000E08F0028E1D11FE003252BE02068816877
:100D9000C90709D0C068A16B0880A06B801CA06344
:100DA000E08F401EE0870CE0FFF760FBA0EB0A013C
:100DB000414503D3B8F1FF3F03D0E5E7B8F1000F99
:100DC000E2D0E08F0028E1D152464146204600F0B3
:100DD000F5FB08B120206065606D00E000E008B11F
:100DE000012501E084F85190002084F85000284645
:100DF00092E72DE9FF4F81B0044690F8500000269D
:100E00000E9F1D4693464FF0010901280FD04FF069
:100E1000010A84F850A0FFF729FB804694F851009E
:100E2000616801280DD0B1F5827F08D103E002206E
:100E300005B0BDE8F08FA16809B9042801D00226E9
:100E4000C9E00298002865D0BBF1000FFBD0002D4F
:100E5000F9D094F85100042802D0052084F85100FC
:100E600000206065C4F838B0E587A5870299216342
:100E7000E586A5862064606420680168490603D47D
:100E8000016841F040010160E068B0F5006F606802
:100E900003D0F0B3012D47D081E008B1012D3CD142
:100EA000206B21680088C860206B801C2063E08E66
:100EB000401EE08631E02068816889070FD5E18E09
:100EC00069B1B9F1010F0AD1216B0988C160206BAA
:100ED000801C2063E08E401EE0864FF000092068F1
:100EE0008168C9070CD0E18F51B1C068A16B08803F
:100EF000A06B801CA063E08F401EE0874FF00109CB
:100F0000FFF7B4FAA0EB0800B84206D3781C04D06F
:100F100001E009E05BE003265BE0E08E0028CAD137
:100F2000E08F0028C7D140E0206B2168007808736B
:100F3000206B401C2063E08E401EE0862FE020687E
:100F4000816889070FD5E18E69B1B9F1010F0AD126
:100F5000216B09780173206B401C2063E08E401EDA
:100F6000E0864FF0000920688168C9070CD0E18F46
:100F700051B1C068A16B0870A06B401CA063E08FEA
:100F8000401EE0874FF00109FFF770FAA0EB080060
:100F9000B84202D3781C02D0BAE7002FB8D0E08E56
:100FA0000028CCD1E08F0028C9D1424639462046DE
:100FB00000F032FB18B10126202060650BE0A0682C
:100FC00018B92068C16880680090606D08B101267A
:100FD00001E084F851A0002084F85000304627E753
:100FE00010B5401EB0F1807F01D3012010BD4FF03D
:100FF000E02460610F21601700F0F9FC0020A0617F
:1010000007202061002010BD7047704710F8411F75
:101010004078084370470000F8B501680446086846
:10102000CA684B6910F00F0F4FF000055AD003F05B
:10103000010602F49077374365D0C10705D0D1058A
:1010400003D5616C41F001016164410705D5D90701
:1010500003D0616C41F002016164810705D5D907B5
:1010600003D0616C41F004016164010707D502F00F
:101070002001314303D0616C41F008016164616C6F
:1010800000293BD0800604D5900602D5204600F00A
:1010900091FB20684069616CC0F3801001F0080189
:1010A000014320462BD000F05EFB206840694006DB
:1010B00021D52068143050E8001F21F0400140E89D
:1010C0000012002AF5D1E06BA8B16D494163E06BD5
:1010D000FFF774F8002811D0E06B416B01B0BDE858
:1010E000F040084783060ED593060CD52046BDE890
:1010F000F84000F05FBB2046FFF787FFF8BDFFF721
:1011000084FF6564F8BD266B2023012E7CD1C606C2
:101110007AD5D60678D508684868009048694FF0B7
:101120000206400640D5E16B086840680004000CE8
:10113000E8D0A28D8242E5D9E085886920282DD0AB
:1011400020680C3050E8001F21F4807140E8001244
:10115000002AF5D12168143151E8000F20F0010078
:1011600041E80002002AF5D12068143050E8001F41
:1011700021F0400140E80012002AF5D184F8423005
:10118000256320680C3050E8001F21F0100140E872
:101190000012002AF5D1E06BFEF7ECFF6663A08D2C
:1011A000E18D401A81B22AE0A08DE18D401A81B212
:1011B000E08D0028A6D00029A4D022680C3252E885
:1011C000000F20F4907042E80007002FF5D120684E
:1011D000143050E8002F22F0010240E80027002FD1
:1011E000F5D184F84230256320680C3050E8002F98
:1011F00022F0100240E80023002BF5D16663204660
:10120000FFF702FFF8BDFFE705062BD5150629D528
:1012100094F841002128F5D1A068B0F5805F01D194
:101220002069B0B1206A411C2162216800784860C1
:10123000E08C401E0004000CE084E3D12068C1680B
:1012400021F08001C1602068C16841F04001C160A7
:10125000D8E7206A0088C0F308004860206A801C34
:101260002062E5E74006CDD55006CBD5CA682046BA
:1012700022F04002CA6084F8413000F0ECF8C1E787
:101280005717000870B5040004D094F841000025F9
:1012900010B106E0012070BD84F84050204600F0F7
:1012A00023F8242084F841002068C16821F400510B
:1012B000C160204600F0E0FA2068016921F4904105
:1012C00001612068416921F02A0141612068C168FB
:1012D00041F40051C1606564202084F8410084F825
:1012E00042006563002070BD30B585B000240094D5
:1012F0000194029403940068184988422CD118483C
:10130000816941F480418161816901F480410491E6
:10131000816941F0040181618069124D00F004008F
:1013200004904FF40070009002200190032003907D
:1013300069462846FEF7A0FF2815CDE90004694656
:1013400028460294FEF798FF002211462520FFF759
:10135000F9F82520FFF7E8F805B030BD0038014066
:10136000001002400008014090F84230202B01D0CC
:101370000220704721B11AB10023036300F0D8BAEC
:10138000012070470B4910B5884212D14FF6FF7308
:1013900001220949074800F011F80648FFF736FE18
:1013A0002128FAD0BDE81040012203490148FFF787
:1013B000DBBF10BD780000201C0000202DE9F843A1
:1013C000044690F841001F4616460D46202802D0DC
:1013D0000220BDE8F8837DB176B100206064212051
:1013E00084F84100FFF742F8A6848046E684A068AE
:1013F000B0F5805F02D003E00120EAE7206910B178
:101400002E4600250EE000260CE08021204600F04C
:10141000AAFAA0B9AEB116F8010B21684860E08CB9
:10142000401EE084E08C43464FF000020097002805
:10143000EBD14FF04001204600F095FA30B1032087
:10144000C7E735F8020BC0F30800E6E7202084F870
:1014500041000020BDE77047FEE7000070B5084D71
:101460004FF4005421462846FEF7F6FFC0F1010074
:10147000C2B221462846BDE87040FEF7F2BF000028
:1014800000100140F0B585B0002520480095019579
:1014900002950395816941F010018161816901F034
:1014A00010010491816941F020018161816901F09D
:1014B00020010491816941F0040181618069144E29
:1014C00000F004004FF400540490002221463046FE
:1014D000FEF7C7FF0F4F012210213846FEF7C1FF6C
:1014E0000220CDE90250009401246946019430465F
:1014F000FEF7C2FE1020CDE900040320CDE9024032
:1015000069463846FEF7B8FE05B0F0BD001002404F
:101510000010014000080140104810B50E4901605C
:101520004FF482714160002181600122C160C0E9F5
:101530000412520282613822C0E9072141628162AD
:101540000A21C162FFF710FB002803D0BDE810405C
:10155000FEF70EBE10BD000000300140200000204C
:101560000C4810B50A4901604FF4E1314160002197
:1015700081600C22C160C0E904128161C161FFF782
:1015800081FE002803D0BDE81040FEF7F1BD10BD7C
:101590000038014078000020FEE7FEE770470000B9
:1015A0000148FFF771BA00002000002010B5406A22
:1015B0000021C187C186FFF763FA10BDF8B5044664
:1015C00040684FF48273984217D1A0684FF4806549
:1015D000B0F5004F01D0A8420FD12068066826F070
:1015E000400606606068984207D1A068A84204D10E
:1015F00000920B460022012103E000920B460022DC
:101600008021204600F018F8002804D0606D40F0DA
:10161000200060650320F8BD38B50B4600920446F3
:101620000022802100F008F8002804D0606D40F00E
:1016300020006065032038BD2DE9F8431E46914621
:1016400088460446089DFEF711FF401B351AFEF739
:101650000DFF074625480068C0F3CB30684338E0EB
:10166000701C37D0FEF702FFC01BA84203D215B191
:10167000009860B32CE02068416821F0E0014160EF
:101680006068B0F5827F0BD1A068B0F5004F02D042
:10169000B0F5806F04D12068016821F0400101603D
:1016A000A06AB0F5005F09D12068016821F40051FB
:1016B00001602068016841F400510160012084F854
:1016C0005100002084F850000320BDE8F883002575
:1016D000401E00902068816838EA010004D0002193
:1016E0004945BDD10020F0E70121F9E718000020AD
:1016F0007047FEF7C1BE30B58FB028216846FEF7AF
:1017000018FD14210AA8FEF714FD01210804CDE9F3
:1017100000100024029402250491CDE907504FF4F3
:10172000E01009906846FFF71BF808B172B6FEE7B3
:101730000F20CDE90A054FF48060CDE90C4002216D
:101740000AA80E94FEF730FF002801D072B6FEE71B
:101750000FB030BD704710B5406A0021C185C1840B
:10176000FFF753FC10BD01680C3151E8002F22F443
:10177000907241E80023002BF5D10168143151E843
:10178000002F22F0010241E80023002BF5D1016B6C
:10179000012909D101680C3151E8002F22F0100213
:1017A00041E80023002BF5D1202180F842100021D0
:1017B0000163704708B590F84210222901D0022039
:1017C00008BD82684FF480539A4201D1016921B16A
:1017D000816A9A421BD04AB10AE00268816A526863
:1017E000C2F308020A80816A891C08E0026972B1AA
:1017F0000268526802F07F020A70816A491C8162A5
:10180000C18D491E0904090CC18503D01BE0026883
:101810005268F1E70168CA6822F02002CA600168D4
:10182000CA6822F48072CA6001684A6922F0010223
:101830004A61202180F8421000214163026B012A95
:1018400003D0FFF79FFD002008BD016301680C3144
:1018500051E8002F22F0100241E80023002BF5D1BF
:1018600001680A68D20602D50A6849680091818D2C
:10187000FFF7CAFBE7E7000070B50446006801699E
:10188000E26821F44051114301612169A0680843D5
:10189000616908432168CA6841F20C639A430243B4
:1018A000CA6020684169A26921F440711143416115
:1018B0001E492068884202D1FEF71CFF01E0FEF7B6
:1018C00009FF00EBC00101EB001260686421800099
:1018D000B2FBF0F3B3FBF1F36FF018067343B2FB06
:1018E000F0F5B2FBF0F605EB8305322303EB0515AB
:1018F000B5FBF1F5B6FBF1F605F0F00505EB0615C5
:10190000B2FBF0F6B2FBF0F0B0FBF1F06FF01802B2
:10191000504306EB800003EB0010B0FBF1F02168B0
:1019200000F00F002844886070BD000000380140BE
:1019300081628285C28500214164222180F84210A3
:10194000016921B10168CA6842F48072CA60016805
:101950004A6942F001024A610068C16841F0200111
:10196000C160002070472DE9F041984617460E46A9
:101970000446069D27E0681C25D02DB1FEF776FDB4
:10198000A0EB0800A8421ED920680C3050E8001FC8
:1019900021F4D07140E80012002AF5D120681430FB
:1019A00050E8001F21F0010140E80012002AF5D1A3
:1019B000202084F8410084F84200002084F8400090
:1019C0000320BDE8F0812068006836EA000004D0FA
:1019D0000020B842CFD00020F3E70120F9E7000053
:1019E0000148FFF719BB000078000020FEE7090757
:1019F000090E002804DB00F1E02080F80014704795
:101A000000F00F0000F1E02080F8141D704702E0A4
:101A100008C8121F08C1002AFAD170477047002079
:101A200001E001C1121F002AFBD17047FEF72CFD17
:101A3000FFF761FEFFF726FDFFF792FDFFF76CFD54
:101A4000012214491448FFF78FFC144C0022102186
:101A50002046FEF706FD4FF47A7541F27C560022CF
:101A600010212046FEF7FDFC2B4604220C490D48B0
:101A7000FFF714F90B48FFF704F80128FAD1012207
:101A800010212046FEF7EDFCFFF7E8FC3046FEF79C
:101A9000E1FBE4E71C000020780000200008014082
:101AA00008000020200000200102020304050607B0
:101AB00008090A0B0C0D0E0F1010000000000000AA
:101AC00000000102030406070809000000000102EB
:101AD00003040000F41A00080000002020000000A9
:101AE0000E1A0008141B000820000020A0040000AB
:101AF0001E1A000804000400010203040000000094
:101B00000100000010000000000000000024F400AC
:041B100000000000D1
:04000005080000ED02
:00000001FF
