:020000040800F2
:10000000C804002001010008CB1300088512000875
:10001000C91300086D010008F9190008000000006C
:10002000000000000000000000000000FD160008B5
:100030006F01000800000000CD130008FF16000843
:100040001B0100081B0100081B0100081B01000820
:100050001B0100081B0100081B0100081B01000810
:100060001B0100081B0100081B0100081B01000800
:100070001B0100081B0100081B0100081B010008F0
:100080001B0100081B0100081B0100081B010008E0
:100090001B0100081B0100081B0100081B010008D0
:1000A0001B0100081B0100081B0100081B010008C0
:1000B0001B0100081B0100081B0100081B010008B0
:1000C0001B0100081B0100081B0100081B010008A0
:1000D000D1130008ED1900081B0100081B010008DE
:1000E0001B0100081B0100081B010008DFF80CD0F1
:1000F00000F02AF800480047391A0008C804002018
:100100000648804706480047FEE7FEE7FEE7FEE7B1
:10011000FEE7FEE7FEE7FEE7FEE7FEE76117000801
:10012000ED000008D2B201E000F8012B491EFBD21D
:1001300070470022F6E710B513460A4604461946F2
:10014000FFF7F0FF204610BD064C074D06E0E068C3
:1001500040F0010394E8070098471034AC42F6D30E
:10016000FFF7C8FFB41A0008D41A0008FEE770476A
:1001700072B6FEE710B590F821100022022905D0D2
:100180000421816380F82020012010BD01680B68E4
:1001900023F00E030B6001680B6823F001030B6072
:1001A00090F84030C46B012101FA03F3636080F8DA
:1001B000211080F82020104610BD000010B590F8E6
:1001C00021100024022903D00421816301243DE091
:1001D00001680A6822F00E020A6001680A6822F0CB
:1001E00001020A601A4A0168914201D1012121E00D
:1001F000174A1432914201D110211BE0144A2832CF
:10020000914201D1891515E0114A3C32914201D148
:1002100089140FE00E4A5032914202D14FF48031DE
:1002200008E00B4A6432914202D14FF4801101E0A0
:100230004FF08071064A083A5160012180F8211080
:10024000002180F82010416B01B18847204610BD85
:100250000800024070B5044600F008F90546601C2D
:1002600002D004480078044400F000F9401BA0428A
:10027000FAD370BD040000202DE9F84FDFF8B891E3
:100280000024A9F1040B23460F2709F1040AABF15E
:10029000040EC9E00125A5402A40AA427DD1674E3F
:1002A000D1F804C0ACEB0608B44532D014DCBCF184
:1002B000030F3AD009DCBCF1000F2AD0BCF1010FCA
:1002C0001CD0BCF1020F31D11DE0BCF1110F17D0D1
:1002D000BCF1120F2AD119E0B8F5881F19D006DC3D
:1002E000B8F5803F15D0B8F5801F1FD111E0B8F5E3
:1002F000001F0ED0B8F5041F18D10AE0CB6815E036
:10030000CB681B1D12E0CB6808330FE0CB680C33C1
:100310000CE08B682BB1012B4FF0080303D0456133
:1003200004E0042302E0056100E00023FF2A01D875
:10033000064601E000F104064FEA840501D9A5F163
:100340002005D6F8008007FA05FC28EA0C0803FA15
:1003500005F548EA0508C6F800804D68ED0062D54D
:10036000374DAE6946F00106AE61AD6924F0030673
:1003700005F001050095334D06EB050CDCF808503F
:10038000A607360F07FA06F825EA0805DFF8B88051
:10039000404503D14FF0000817E044E0DFF8AC809F
:1003A000404502D14FF001080FE0DFF8A48040453E
:1003B00002D14FF0020808E0DFF89880404502D1F2
:1003C0004FF0030801E04FF0040808FA06F848EA85
:1003D0000508CCF808804D68D9F80060ED024D465C
:1003E00001D5164300E096432E604D68DAF80060B0
:1003F000AD02554601D5164300E096432E604D6888
:10040000DBF80060AD035D4601D5164300E096437E
:100410002E604D68DEF80060ED03754601D5164389
:1004200000E096432E60641C0D682A46E5407FF488
:1004300031AFBDE8F88F0000080401400000111042
:10044000001002400000014000080140000C014083
:1004500000100140001401408068084000D00120D5
:1004600070470AB1016170470904FBE701488068E1
:10047000704700000400002002488168027811449F
:100480008160704704000020074810B5016841F002
:1004900010010160032000F075F80F2000F006F84D
:1004A00000F024F8002010BD0020024070B50D4D72
:1004B00004464FF47A712878B1FBF0F00A490968D4
:1004C000B1FBF0F000F0A3FC48B9102C07D20022D9
:1004D0002146501E00F036F800206C6070BD0120EF
:1004E00070BD000004000020100000200C4808B57A
:1004F000816941F001018161816901F0010100918F
:10050000C16941F08051C161C06900F08050009024
:100510000448416821F0E06141F00071416008BD8C
:100520000010024000000140002809DB00F01F021B
:10053000012191404009800000F1E020C0F8001145
:1005400070470000F0B40E4B1B680C46C3F3022347
:10055000C3F10705042D00D90425191D072901D26F
:10056000002300E0DB1E012606FA05F1491E2140AA
:1005700099409E40761E16403143F0BC01F03DBAD2
:100580000CED00E0064900F0070208684FF6FF0393
:10059000184040EA0220034A1043086070470000F8
:1005A0000CED00E00000FA052DE9F0470F460500CC
:1005B00061D0434E306800F00700B84209D230687D
:1005C00020F0070038433060306800F00700B84280
:1005D00051D128683B4C810712D5400703D560688C
:1005E00040F4E06060602878000703D5606840F45C
:1005F000605060606068A96820F0F00008436060A7
:100600002878C00728D06868012810D021680228FF
:1006100010D0890700292EDA616821F00301014317
:100620006160FFF723FF804641F288390DE02168C1
:100630008903EFE78901EDE7FFF718FFA0EB080159
:10064000494502D90320BDE8F0876068696800F079
:100650000C00B0EB810FEFD1306800F00700B8421A
:100660000BD9306820F0070038433060306800F064
:100670000700B84201D00120E5E72878400705D5FA
:100680006068E96820F4E06008436060287800074B
:1006900006D56068296920F4605040EAC1006060B6
:1006A00000F038F86168084AC1F30311515CC84092
:1006B0000649086006480068FFF7F8FE0020C2E718
:1006C00000200240001002409A1A0008100000208A
:1006D000080000200448054900684968044AC1F33D
:1006E0000221515CC84070471000002000100240F9
:1006F000AA1A00080448054900684968044AC1F379
:10070000C221515CC8407047100000200010024018
:10071000AA1A00080E4A51680E4801F00C03042B77
:1007200011D0082B0FD10C48C1F38343C903C05C1F
:100730000AD55168084AC1F34041921E515C054AEE
:100740005043B0FBF1F07047044948437047000044
:100750000010024000127A008A1A000800093D00C9
:100760002DE9F84F040070D02078C04DC00749D063
:100770006868C0F38100012807D06868C0F3810071
:10078000022809D16868C00306D52868800339D5D6
:1007900060680028E7D035E06068B0F5803F0BD096
:1007A00010B1B0F5A02F11D0286820F48030286057
:1007B000286820F4802002E0286840F48030286017
:1007C000606890B1FFF752FE06460AE0286840F4E0
:1007D00080202860F0E700BFFFF748FE801B6428F8
:1007E00073D828688003F7D50CE0FFF73FFE064674
:1007F00005E000BFFFF73AFE801B6428F0D82868A8
:100800008003F7D420789A4E80074FF001094FF00B
:10081000000839D5686810F00C0F07D06868C0F37D
:100820008100022809D16868C00306D428688007BF
:1008300014D52069012808D110E02069B0B1C6F8AC
:100840000090FFF713FE074605E00AE1FFF70EFEF2
:10085000C01B0228C4D828688007F7D528686169BA
:1008600020F0F80040EAC10028600DE0C6F80080E2
:10087000FFF7FCFD074604E0FFF7F8FDC01B022868
:1008800023D828688007F7D4207800072CD579482A
:10089000A169D9B1C0F80090FFF7E8FD074604E070
:1008A000FFF7E4FDC01B02280FD8686A8007F7D560
:1008B00071484FF4FA510068B0FBF1F0009000BFAE
:1008C0000098411E0091FAD20EE080E0C0F800804E
:1008D000FFF7CCFD074604E0FFF7C8FDC01B022868
:1008E00075D8686A8007F7D42078400760D5E86932
:1008F0000027C00008D4E86940F08050E861E8694A
:10090000012700F0805000905C480168C90513D4AD
:100910000168834641F480710160FFF7A7FD8246BC
:1009200006E000BFFFF7A2FDA0EB0A0064284ED846
:10093000DBF80000C005F5D5E06801280AD008B151
:10094000052813D0286A20F001002862286A20F0C8
:10095000040002E0286A40F001002862E06841F2E9
:10096000883B98B1FFF782FD82460BE0286A40F091
:1009700004002862EEE700BFFFF778FDA0EB0A0154
:1009800059455AD8286A8007F6D50CE0FFF76EFD66
:10099000824605E0FFF76AFDA0EB0A0159454CD8F5
:1009A000286A8007F6D41FB1E86920F08050E8611A
:1009B000E06988B36968C1F38101022944D0022843
:1009C000C6F8608004D0FFF751FD044638E034E0FB
:1009D000FFF74CFD074604E0FFF748FDC01B022867
:1009E0002BD828688001F7D4206AB0F5803F05D164
:1009F0006868A16820F4003008436860D4E9080101
:100A00000843696821F4741108436860C6F860906F
:100A1000FFF72CFD044606E025E000BFFFF726FDAA
:100A2000001B022809D828688001F7D51BE000BF09
:100A3000FFF71CFD001B022802D90320BDE8F88F38
:100A400028688001F4D40EE00128F7D06868226A93
:100A500000F48031914204D1616A00F47010884240
:100A600001D00120EAE70020E8E700000010024082
:100A7000000042428004424210000020007000400A
:100A80007047000038B50446006842688168C94371
:100A90004B0606D5CB0704D1D3435B0601D4216CAA
:100AA00005E08B0708D4D3431B0605D4616C01B065
:100AB0002046BDE8304008478B0601D54B0646D49A
:100AC000D3439B0643D44B060AD494F85130032BEE
:100AD0003ED0636D43F004036365C368836800938D
:100AE000890609D4616D41F0010161658168009159
:100AF000016821F040010160606D002827D0206866
:100B0000416821F0E0014160012084F85100900724
:100B100022D02068416821F003014160104DE06C53
:100B200040B14563E06CFFF749FB18B1606D40F0E0
:100B300040006065A06C002809D04563A06CFFF7F9
:100B40003DFB002803D0606D40F04000606538BD7B
:100B5000C1688068009038BD2046FFF791FF38BD1E
:100B60007915000870B5040009D0606A002540B10D
:100B700025616561A56294F8510040B10CE0012047
:100B800070BD6068B0F5827FF4D0E561F2E784F86B
:100B90005050204600F040F8022084F851002068B0
:100BA000016821F040010160A088218900F4827071
:100BB00001F404410843A18901F400610843217C48
:100BC00001F002010843217D01F001010843218B5E
:100BD00001F400710843217F01F03801084394F8C3
:100BE000201001F080010843218D01F400510843D9
:100BF00021680860A069042101EA1040216848606A
:100C00002068C16921F40061C1616565012084F833
:100C10005100002070BD000010B586B00021009189
:100C20000191029103910068184988422BD118481C
:100C3000C16941F48041C161C16901F480410491FD
:100C4000816941F0080181618069124C00F008005F
:100C500004904FF43040009069462046FFF70CFBAB
:100C60004FF48040009002200190032003906946D9
:100C70002046FFF701FB002211462420FFF762FC0B
:100C80002420FFF751FC06B010BD000000380040E2
:100C900000100240000C0140F0B490F8515013468F
:100CA00000242246012D01D0022444E08568042658
:100CB0001DB94768B7F5827F16D090F85070012FA4
:100CC00018D0012780F85070B9B1B3B180F85160E5
:100CD000426581638387C38702638286C2864264DA
:100CE000C16861B116490BE080F85160F0BC0A465A
:100CF00000F03AB80220F0BC704701241BE0114913
:100D00000164B5F5004F09D101680B6823F0400379
:100D10000B6001680B6823F480430B6001684B682B
:100D200043F060034B6001680B685B0603D40B68FB
:100D300043F040030B6080F850202046DBE70000C2
:100D400005160008251600080449884205D1044804
:100D5000044902880148FFF79FBF70472400002024
:100D60000000002018000020F0B590F8505000243A
:100D7000012D0CD0012580F8505090F851500026DC
:100D80004768012D0BD0B7F5827F06D101E0022024
:100D9000F0BD87680FB9042D01D0022429E0A9B164
:100DA000A2B19BB190F85150042D02D0052580F8D6
:100DB0005150466501638386C38682638387C387F8
:100DC000C16829B10D4901640D4904E0012410E016
:100DD0000C4901640C49416401684A6842F0E00230
:100DE0004A6001680A68520603D40A6842F0400269
:100DF0000A6080F850602046F0BD0000DD13000856
:100E00003D1400080D1400086D140008704710B55B
:100E1000401EB0F1807F01D3012010BD4FF0E024CF
:100E200060610F21601700F0E8FD0020A06107203D
:100E30002061002010BD7047704710F8411F4078B6
:100E400008437047F8B5016804460868CA684B69EA
:100E500010F00F0F4FF000055AD003F0010602F416
:100E60009077374365D0C10705D0D10503D5616CB4
:100E700041F001016164410705D5D90703D0616CD8
:100E800041F002016164810705D5D90703D0616C87
:100E900041F004016164010707D502F020013143EC
:100EA00003D0616C41F008016164616C00293BD0A2
:100EB000800604D5900602D5204600F081FC20680B
:100EC0004069616CC0F3801001F0080101432046C5
:100ED0002BD000F04EFC20684069400621D52068E8
:100EE000143050E8001F21F0400140E80012002AB1
:100EF000F5D1E06BA8B16D494163E06BFFF75EF996
:100F0000002811D0E06B416B01B0BDE8F04008470C
:100F100083060ED593060CD52046BDE8F84000F0B8
:100F20004FBC2046FFF788FFF8BDFFF785FF6564DB
:100F3000F8BD266B2023012E7CD1C6067AD5D606B5
:100F400078D508684868009048694FF00206400666
:100F500040D5E16B086840680004000CE8D0A28D21
:100F60008242E5D9E085886920282DD020680C30A0
:100F700050E8001F21F4807140E80012002AF5D1EA
:100F80002168143151E8000F20F0010041E800020F
:100F9000002AF5D12068143050E8001F21F04001EC
:100FA00040E80012002AF5D184F842302563206819
:100FB0000C3050E8001F21F0100140E80012002A18
:100FC000F5D1E06BFFF7D6F86663A08DE18D401A8E
:100FD00081B22AE0A08DE18D401A81B2E08D002817
:100FE000A6D00029A4D022680C3252E8000F20F4C9
:100FF000907042E80007002FF5D12068143050E8C7
:10100000002F22F0010240E80027002FF5D184F8DC
:101010004230256320680C3050E8002F22F0100287
:1010200040E80023002BF5D166632046FFF703FF5D
:10103000F8BDFFE705062BD5150629D594F8410024
:101040002128F5D1A068B0F5805F01D12069B0B149
:10105000206A411C2162216800784860E08C401EB3
:101060000004000CE084E3D12068C16821F0800115
:10107000C1602068C16841F04001C160D8E7206AC2
:101080000088C0F308004860206A801C2062E5E701
:101090004006CDD55006CBD5CA68204622F0400286
:1010A000CA6084F8413000F0ECF8C1E7631700082B
:1010B00070B5040004D094F84100002510B106E09A
:1010C000012070BD84F84050204600F023F8242011
:1010D00084F841002068C16821F40051C1602046B5
:1010E00000F0D0FB2068016921F490410161206883
:1010F000416921F02A0141612068C16841F4005131
:10110000C1606564202084F8410084F84200656372
:10111000002070BD30B585B0002400940194029485
:1011200003940068184988422CD11848816941F419
:1011300080418161816901F480410491816941F0BC
:10114000040181618069124D00F0040004904FF4A5
:101150000070009002200190032003906946284609
:10116000FFF78AF82815CDE900046946284602945D
:10117000FFF782F8002211462520FFF7E3F925202A
:10118000FFF7D2F905B030BD003801400010024031
:101190000008014090F84230202B01D00220704717
:1011A00021B11AB10023036300F0C8BB01207047CE
:1011B0000B4910B5884212D14FF6FF73012209493D
:1011C000074800F011F80648FFF737FE2128FAD04B
:1011D000BDE81040012203490148FFF7DBBF10BD05
:1011E0007C000020140000202DE9F843044690F80C
:1011F00041001F4616460D46202802D00220BDE8B9
:10120000F8837DB176B100206064212084F841002C
:10121000FFF72CF9A6848046E684A068B0F5805FCD
:1012200002D003E00120EAE7206910B12E46002534
:101230000EE000260CE08021204600F09AFBA0B9C9
:10124000AEB116F8010B21684860E08C401EE084C6
:10125000E08C43464FF0000200970028EBD14FF09E
:101260004001204600F085FB30B10320C7E735F888
:10127000020BC0F30800E6E7202084F841000020BC
:10128000BDE77047FEE7000070B5084D4FF400540D
:1012900021462846FFF7E0F8C0F10100C2B221461E
:1012A0002846BDE87040FFF7DCB8000000100140A0
:1012B000F0B585B00024244800940194029403946E
:1012C000816941F010018161816901F0100104918F
:1012D000816941F020018161816901F0200104915F
:1012E000816941F004018161816901F00401049187
:1012F000816941F0080181618069144E00F00800A5
:101300004FF400550490002229463046FFF7A9F813
:101310000F4F012210213846FFF7A3F80220CDE934
:10132000024000950125694601953046FEF7A4FF6D
:101330001020CDE900050320CDE90240694638467A
:10134000FEF79AFF05B0F0BD00100240001001400A
:10135000000801400D4810B50B49016000214160B3
:1013600081600122C160C0E90412816101624162B1
:1013700081620A21C162FFF7F5FB002803D0BDE8B6
:101380001040FEF7F5BE10BD0038004024000020DC
:101390000C4810B50A4901604FF4E1314160002169
:1013A00081600C22C160C0E904128161C161FFF754
:1013B0007FFE002803D0BDE81040FEF7D9BE10BD67
:1013C000003801407C000020FEE7FEE77047000087
:1013D0000148FFF757BB0000240000200168C968DE
:1013E000826B1180816B891C8163C18F491EC1870B
:1013F000C18F002909D101684A6822F040024A6081
:10140000C18E002901D100F049B870470168097BFD
:10141000826B1170816B491C8163C18F491EC1872A
:10142000C18F002909D101684A6822F060024A6030
:10143000C18E002901D100F031B87047016B0268FC
:101440000988D160016B891C0163C18E491EC18668
:10145000C18E002909D101684A6822F080024A60E1
:10146000C18F002901D100F019B87047016B0268E3
:1014700009781173016B491C0163C18E491EC18635
:10148000C18E002909D101684A6822F080024A60B1
:10149000C18F002901D100F001B8704738B504466A
:1014A000214845F6C0510068B0FBF1F06421484383
:1014B0000090FEF7DBFF02462068416821F0200122
:1014C0004160009888B1401E0090206880688007C5
:1014D000F7D56421204600F085F818B1606D40F022
:1014E00020006065A06828B108E0606D40F0200031
:1014F0006065EEE72068C16880680090616D01203A
:1015000029B184F851002046FFF7BAFA38BD94F8A3
:10151000511084F851000429204602D0FFF776FCD0
:1015200038BDFFF711FC38BD1000002038B5044667
:101530000068416821F060014160FEF797FF0246B4
:101540006421204600F020F818B1606D40F02000C2
:101550006065A06818B92068C168806800900120A3
:1015600084F85100606D0028204602D0FFF788FA09
:1015700038BDFFF7E9FB38BD10B5406A0021C187CF
:10158000C186FFF77DFA10BDF8B5044640684FF4F8
:101590008273984217D1A0684FF48065B0F5004F70
:1015A00001D0A8420FD12068066826F040060660E8
:1015B0006068984207D1A068A84204D100920B4607
:1015C0000022012103E000920B46002280212046E8
:1015D00000F038F8002804D0606D40F0200060650D
:1015E0000320F8BD38B50B46009204460022802146
:1015F00000F028F8002804D0606D40F020006065FD
:10160000032038BD0168C968826B1180816B891C19
:101610008163C18F491EC187C18F002901D1FFF7A6
:1016200085BF70470168097B826B1170816B491C13
:101630008163C18F491EC187C18F002901D1FFF786
:1016400075BF70472DE9F8431E469146884604460B
:10165000089DFEF70BFF401B351AFEF707FF0746F4
:1016600025480068C0F3CB30684338E0701C37D0A1
:10167000FEF7FCFEC01BA84203D215B1009860B370
:101680002CE02068416821F0E00141606068B0F51D
:10169000827F0BD1A068B0F5004F02D0B0F5806F0B
:1016A00004D12068016821F040010160A06AB0F512
:1016B000005F09D12068016821F4005101602068B1
:1016C000016841F400510160012084F851000020BC
:1016D00084F850000320BDE8F8830025401E0090E8
:1016E0002068816838EA010004D000214945BDD155
:1016F0000020F0E70121F9E7100000207047FEF715
:10170000BBBE30B58FB028216846FEF712FD14210C
:101710000AA8FEF70EFD01210804CDE900100024FF
:10172000029402250491CDE907504FF4E01009908E
:101730006846FFF715F808B172B6FEE70F20CDE94D
:101740000A054FF48060CDE90C4002210AA80E94EE
:10175000FEF72AFF002801D072B6FEE70FB030BDB9
:10176000704710B5406A0021C185C184FFF764FB52
:1017700010BD01680C3151E8002F22F4907241E84D
:101780000023002BF5D10168143151E8002F22F01D
:10179000010241E80023002BF5D1016B012909D199
:1017A00001680C3151E8002F22F0100241E80023BB
:1017B000002BF5D1202180F84210002101637047F1
:1017C00008B590F84210222901D0022008BD826895
:1017D0004FF480539A4201D1016921B1816A9A4242
:1017E0001BD04AB10AE00268816A5268C2F308025B
:1017F0000A80816A891C08E0026972B10268526835
:1018000002F07F020A70816A491C8162C18D491E03
:101810000904090CC18503D01BE002685268F1E796
:101820000168CA6822F02002CA600168CA6822F40E
:101830008072CA6001684A6922F001024A6120216F
:1018400080F8421000214163026B012A03D0FFF7A8
:10185000AFFC002008BD016301680C3151E8002F86
:1018600022F0100241E80023002BF5D101680A683C
:10187000D20602D50A6849680091818DFFF7DBFA2C
:10188000E7E7000070B5044600680169E26821F4EA
:101890004051114301612169A0680843616908430F
:1018A0002168CA6841F20C639A430243CA60206807
:1018B0004169A26921F44071114341611E492068C8
:1018C000884202D1FEF716FF01E0FEF703FF00EBAE
:1018D000C00101EB0012606864218000B2FBF0F3EC
:1018E000B3FBF1F36FF018067343B2FBF0F5B2FBF4
:1018F000F0F605EB8305322303EB0515B5FBF1F597
:10190000B6FBF1F605F0F00505EB0615B2FBF0F6B7
:10191000B2FBF0F0B0FBF1F06FF01802504306EBB1
:10192000800003EB0010B0FBF1F0216800F00F0025
:101930002844886070BD00000038014081628285C3
:10194000C28500214164222180F84210016921B141
:101950000168CA6842F48072CA6001684A6942F04C
:1019600001024A610068C16841F02001C1600020A5
:1019700070472DE9F041984617460E460446069DED
:1019800027E0681C25D02DB1FEF770FDA0EB080004
:10199000A8421ED920680C3050E8001F21F4D071F5
:1019A00040E80012002AF5D12068143050E8001FEA
:1019B00021F0010140E80012002AF5D1202084F82E
:1019C000410084F84200002084F840000320BDE874
:1019D000F0812068006836EA000004D00020B84298
:1019E000CFD00020F3E70120F9E700000148FFF71E
:1019F00029BA00007C000020FEE70907090E002834
:101A000004DB00F1E02080F80014704700F00F00C4
:101A100000F1E02080F8141D704702E008C8121F92
:101A200008C1002AFAD170477047002001E001C1C7
:101A3000121F002AFBD17047FEF726FDFFF761FE5B
:101A4000FFF736FCFFF7A4FCFFF784FC01220949ED
:101A50000948FFF79FFB0948094902880948FFF731
:101A60001BF94FF4FA7400BFFFF70EFC2046FEF797
:101A7000F1FBF9E7140000207C00002000000020AA
:101A800018000020240000200102020304050607BC
:101A900008090A0B0C0D0E0F1010000000000000CA
:101AA000000001020304060708090000000001020B
:101AB00003040000D41A00080000002018000000F1
:101AC0001A1A0008EC1A000818000020B0040000E0
:101AD0002A1A00080A00000001000000100000009F
:0C1AE000000000000024F40000000000E2
:04000005080000ED02
:00000001FF
