:020000040800F2
:100000006805002001010008E715000899140008A0
:10001000E51500080F020008151B0008000000008D
:100020000000000000000000000000001918000897
:100030005302000800000000E91500081B18000822
:100040001B0100081B0100081B0100081B01000820
:100050001B0100081B0100081B0100081B01000810
:100060001B0100081B0100081B0100081B01000800
:10007000110200081D0200081B0100081B010008F6
:100080001B0100081B0100081B0100081B010008E0
:100090001B0100081B0100081B0100081B010008D0
:1000A0001B0100081B0100081B0100081B010008C0
:1000B0001B0100081B0100081B0100081B010008B0
:1000C0001B0100081B0100081B0100081B010008A0
:1000D0001B010008091B00081B0100081B01000888
:1000E0001B0100081B0100081B010008DFF80CD0F1
:1000F00000F06CF800480047F51F00086805002074
:100100000648804706480047FEE7FEE7FEE7FEE7B1
:10011000FEE7FEE7FEE7FEE7FEE7FEE77D180008E4
:10012000ED000008202A04DB203A21FA02F0002129
:10013000704721FA02F3D040C2F1200291400843F7
:1001400019467047D2B201E000F8012B491EFBD2DC
:1001500070470022F6E710B513460A4604461946D2
:10016000FFF7F0FF204610BD2DE9F05F05460020A7
:1001700092469B4688460646814640241BE0284618
:10018000414647462246FFF7CDFF53465A46C01A1E
:10019000914110D311461846224600F029F82D1A35
:1001A00067EB01084F4622460120002100F020F8AD
:1001B00017EB00094E41201EA4F10104DFDC484684
:1001C00031462A464346BDE8F09F0000064C074DE5
:1001D00006E0E06840F0010394E807009847103417
:1001E000AC42F6D3FFF786FFB4200008D420000805
:1001F000202A04DB203A00FA02F1002070479140E7
:10020000C2F1200320FA03F3194390407047FEE740
:10021000014800F091B8000094000020014800F06F
:100220008BB80000D800002030B590F84050012471
:10023000AC40C56B6C60046863604368102B036856
:1002400003D099600068C26030BD9A600068C160E8
:1002500030BD704772B6FEE710B590F8211000224D
:10026000022905D00421816380F82020012010BDDF
:1002700001680B6823F00E030B6001680B6823F024
:1002800001030B6090F84030C46B012101FA03F3C5
:10029000636080F8211080F82020104610BD000017
:1002A00010B590F821100024022903D004218163A5
:1002B00001243DE001680A6822F00E020A6001682C
:1002C0000A6822F001020A601A4A0168914201D1CB
:1002D000012121E0174A1432914201D110211BE083
:1002E000144A2832914201D1891515E0114A3C3255
:1002F000914201D189140FE00E4A5032914202D14D
:100300004FF4803108E00B4A6432914202D14FF43D
:10031000801101E04FF08071064A083A51600121D6
:1003200080F82110002180F82010416B01B188472E
:10033000204610BD080002402DE9F05FC16B0C683B
:1003400001680B68D0F840C0042202FA0CF2494D53
:10035000DFF824A1494E4A4FDFF828B1DFF828E141
:1003600022422CD05A072AD50A68920603D40A687A
:1003700022F004020A600168A94201D1042219E0B6
:10038000514501D1402215E0B14202D14FF48062C3
:1003900010E0B94202D14FF480420BE0594502D13E
:1003A0004FF4802206E0714502D14FF4800201E053
:1003B0004FF080622F4908394A60C16A3BE04FF034
:1003C000020808FA0CF818EA040F4FF000094FF081
:1003D000010235D05FEA837832D50B689B0605D4DD
:1003E0000B6823F00A030B6080F821200168A94202
:1003F00001D1022219E0514501D1202215E0B1427C
:1004000002D14FF4007210E0B94202D14FF4005211
:100410000BE0594502D14FF4003206E0714502D19C
:100420004FF4001201E04FF00072124908394A609F
:1004300080F82090816A00291AD0BDE8F05F084753
:10044000082505FA0CF5254212D01B0710D50B68BC
:1004500023F00E030B6090F84010C36B02FA01F119
:100460005960826380F8212080F82090016BE2E7D8
:10047000BDE8F09F080002401C000240300002402E
:1004800044000240580002406C00024030B528B3DE
:1004900008C8134914221944B1FBF2F18900C16361
:1004A00010498163022141771A6843F6F0718A434B
:1004B000D0E900142143D0E902452C4321430469CB
:1004C0002143446921438469214311431960002178
:1004D0004163012242770177084630BD012030BDDB
:1004E000F8FFFDBF0000024070B5044690F8200000
:1004F000002501280CD0012084F8200094F8216008
:100500000020012E06D084F820000225284670BD68
:10051000022070BD022684F82160A063206806686E
:1005200026F0010606602046FFF77EFEE06A0028FE
:100530002068016802D041F00E0106E021F00401BC
:1005400001602068016841F00A01016020680168CB
:1005500041F001010160D9E770B5044600F008F9E7
:100560000546601C02D004480078044400F000F9FD
:10057000401BA042FAD370BD100000202DE9F84FB7
:10058000DFF8B8910024A9F1040B23460F2709F1E5
:10059000040AABF1040EC9E00125A5402A40AA4295
:1005A0007DD1674ED1F804C0ACEB0608B44532D01B
:1005B00014DCBCF1030F3AD009DCBCF1000F2AD0E7
:1005C000BCF1010F1CD0BCF1020F31D11DE0BCF118
:1005D000110F17D0BCF1120F2AD119E0B8F5881FFE
:1005E00019D006DCB8F5803F15D0B8F5801F1FD1B3
:1005F00011E0B8F5001F0ED0B8F5041F18D10AE0BD
:10060000CB6815E0CB681B1D12E0CB6808330FE008
:10061000CB680C330CE08B682BB1012B4FF0080337
:1006200003D0456104E0042302E0056100E00023FB
:10063000FF2A01D8064601E000F104064FEA8405CE
:1006400001D9A5F12005D6F8008007FA05FC28EAB3
:100650000C0803FA05F548EA0508C6F800804D685D
:10066000ED0062D5374DAE6946F00106AE61AD6969
:1006700024F0030605F001050095334D06EB050C4B
:10068000DCF80850A607360F07FA06F825EA080531
:10069000DFF8B880404503D14FF0000817E044E090
:1006A000DFF8AC80404502D14FF001080FE0DFF8E1
:1006B000A480404502D14FF0020808E0DFF898809E
:1006C000404502D14FF0030801E04FF0040808FA5A
:1006D00006F848EA0508CCF808804D68D9F80060AB
:1006E000ED024D4601D5164300E096432E604D685D
:1006F000DAF80060AD02554601D5164300E0964396
:100700002E604D68DBF80060AD035D4601D51643F1
:1007100000E096432E604D68DEF80060ED037546FC
:1007200001D5164300E096432E60641C0D682A46EE
:10073000E5407FF431AFBDE8F88F000008040140C8
:1007400000001110001002400000014000080140AC
:10075000000C014000100140001401408068084076
:1007600000D0012070470AB1016170470904FBE71E
:10077000014880687047000010000020024881682E
:10078000027811448160704710000020074810B5BE
:10079000016841F010010160032000F075F80F209E
:1007A00000F006F800F024F8002010BD0020024000
:1007B00070B50D4D04464FF47A712878B1FBF0F016
:1007C0000A490968B1FBF0F000F02AFC48B9102C86
:1007D00007D200222146501E00F036F800206C603F
:1007E00070BD012070BD0000100000201C00002022
:1007F0000C4808B5816941F001018161816901F00E
:1008000001010091C16941F08051C161C06900F0EE
:10081000805000900448416821F0E06141F000718F
:10082000416008BD0010024000000140002809DBC3
:1008300000F01F02012191404009800000F1E020FA
:10084000C0F8001170470000F0B40E4B1B680C4656
:10085000C3F30223C3F10705042D00D90425191D94
:10086000072901D2002300E0DB1E012606FA05F16C
:10087000491E214099409E40761E16403143F0BCEF
:1008800001F05AB90CED00E0064900F007020868D3
:100890004FF6FF03184040EA0220034A1043086065
:1008A000704700000CED00E00000FA052DE9F0476C
:1008B0000F46050061D0434E306800F00700B84293
:1008C00009D2306820F0070038433060306800F00B
:1008D0000700B84251D128683B4C810712D5400728
:1008E00003D5606840F4E06060602878000703D5B5
:1008F000606840F4605060606068A96820F0F000B3
:10090000084360602878C00728D06868012810D0A4
:100910002168022810D0890700292EDA616821F0A9
:10092000030101436160FFF723FF804641F28839EC
:100930000DE021688903EFE78901EDE7FFF718FF74
:10094000A0EB0801494502D90320BDE8F0876068A3
:10095000696800F00C00B0EB810FEFD1306800F057
:100960000700B8420BD9306820F0070038433060E8
:10097000306800F00700B84201D00120E5E7287890
:10098000400705D56068E96820F4E06008436060CE
:100990002878000706D56068296920F4605040EA8D
:1009A000C100606000F038F86168084AC1F30311C3
:1009B000515CC8400649086006480068FFF7F8FE29
:1009C0000020C2E700200240001002409A200008E8
:1009D0001C000020140000200448054900684968F4
:1009E000044AC1F30221515CC84070471C0000203A
:1009F00000100240AA200008044805490068496820
:100A0000044AC1F3C221515CC84070471C00002059
:100A100000100240AA2000080E4A51680E4801F05A
:100A20000C03042B11D0082B0FD10C48C1F38343C6
:100A3000C903C05C0AD55168084AC1F34041921EFF
:100A4000515C054A5043B0FBF1F0704704494843FC
:100A5000704700000010024000127A008A2000084F
:100A600000093D002DE9F84F040070D02078C04DFA
:100A7000C00749D06868C0F38100012807D06868C2
:100A8000C0F38100022809D16868C00306D5286830
:100A9000800339D560680028E7D035E06068B0F59C
:100AA000803F0BD010B1B0F5A02F11D0286820F4F2
:100AB00080302860286820F4802002E0286840F414
:100AC00080302860606890B1FFF752FE06460AE069
:100AD000286840F480202860F0E700BFFFF748FE58
:100AE000801B642873D828688003F7D50CE0FFF7D3
:100AF0003FFE064605E000BFFFF73AFE801B642874
:100B0000F0D828688003F7D420789A4E80074FF0F9
:100B100001094FF0000839D5686810F00C0F07D0B4
:100B20006868C0F38100022809D16868C00306D450
:100B30002868800714D52069012808D110E02069B1
:100B4000B0B1C6F80090FFF713FE074605E00AE1D2
:100B5000FFF70EFEC01B0228C4D828688007F7D50F
:100B60002868616920F0F80040EAC10028600DE0C3
:100B7000C6F80080FFF7FCFD074604E0FFF7F8FD2C
:100B8000C01B022823D828688007F7D420780007E4
:100B90002CD57948A169D9B1C0F80090FFF7E8FDDC
:100BA000074604E0FFF7E4FDC01B02280FD8686A7F
:100BB0008007F7D571484FF4FA510068B0FBF1F0A7
:100BC000009000BF0098411E0091FAD20EE080E034
:100BD000C0F80080FFF7CCFD074604E0FFF7C8FD32
:100BE000C01B022875D8686A8007F7D420784007B0
:100BF00060D5E8690027C00008D4E86940F080505B
:100C0000E861E869012700F0805000905C480168C5
:100C1000C90513D40168834641F480710160FFF770
:100C2000A7FD824606E000BFFFF7A2FDA0EB0A0089
:100C300064284ED8DBF80000C005F5D5E06801282F
:100C40000AD008B1052813D0286A20F001002862D4
:100C5000286A20F0040002E0286A40F001002862BF
:100C6000E06841F2883B98B1FFF782FD82460BE0D5
:100C7000286A40F004002862EEE700BFFFF778FD25
:100C8000A0EB0A0159455AD8286A8007F6D50CE02E
:100C9000FFF76EFD824605E0FFF76AFDA0EB0A0153
:100CA00059454CD8286A8007F6D41FB1E86920F06E
:100CB0008050E861E06988B36968C1F38101022965
:100CC00044D00228C6F8608004D0FFF751FD0446E6
:100CD00038E034E0FFF74CFD074604E0FFF748FD3D
:100CE000C01B02282BD828688001F7D4206AB0F5F1
:100CF000803F05D16868A16820F40030084368602F
:100D0000D4E908010843696821F474110843686054
:100D1000C6F86090FFF72CFD044606E025E000BF12
:100D2000FFF726FD001B022809D828688001F7D5A7
:100D30001BE000BFFFF71CFD001B022802D90320A7
:100D4000BDE8F88F28688001F4D40EE00128F7D0C0
:100D50006868226A00F48031914204D1616A00F42B
:100D60007010884201D00120EAE70020E8E7000087
:100D70000010024000004242800442421C00002059
:100D800000700040704770B5040009D0606A00250B
:100D900040B125616561A56294F8510040B10CE055
:100DA000012070BD6068B0F5827FF4D0E561F2E7A4
:100DB00084F85050204600F03FF8022084F851009B
:100DC0002068016821F040010160A088218900F4B9
:100DD000827001F404410843A18901F400610843D1
:100DE000217C01F002010843217D01F0010108434B
:100DF000218B01F400710843217F01F03801084381
:100E000094F8201001F080010843218D01F4005175
:100E1000084321680860A069042101EA10402168A4
:100E200048602068C16921F40061C16165650120E5
:100E300084F85100002070BD2DE9F04186B00024F7
:100E4000064600940194029403940068284988425D
:100E50004BD12848816941F480518161816901F455
:100E600080510491816941F0040181618069224DC2
:100E700000F004000490B020009069462846FFF777
:100E80007DFB4020009002200190032003906946E2
:100E90002846FFF773FB1A4D18488027C5E9000460
:100EA000C5E902474FF020082C61C5E905482846EE
:100EB000EC61FFF7EBFA08B1FFF7CCF9F5646E626D
:100EC0000F4D0E484435143001C5102091C50C4813
:100ED00045F810494430C5E90548EC61FFF7D6FAFA
:100EE00008B1FFF7B7F9B5646E6206B0BDE8F081EE
:100EF0000030014000100240000801401C00024088
:100F000094000020704770472DE9F041044690F8A6
:100F10005000002601280CD0012084F8500094F8DD
:100F200051000025676801280CD0B7F5827F07D1F2
:100F300002E00220BDE8F081A7680FB9042801D0C3
:100F400002265DE049B342B33BB394F85100042854
:100F500002D0052084F8510065652163A386E386ED
:100F6000A263A387E3872564656494F8510004288D
:100F700015D0E16C2448C8622448E16C8862E16CB9
:100F800023480863E06C4563E38F2168A26B0C3152
:100F9000E06CFFF7A9FAE0B906E0012630E0E16C69
:100FA0001C48C8621C48E8E72068416841F001011C
:100FB0004160A06CC562A06C8562A06C0563A06CEA
:100FC0004563E38E2268216B0C32A06CFFF78CFA2C
:100FD00020B1606D40F010006065DEE720680168B8
:100FE000490603D4016841F040010160206841686E
:100FF00041F0200141602068416841F002014160F8
:1010000084F85050304695E7171600088B160008F4
:10101000EB1500080D1600082116000870477047F0
:1010200010B5401EB0F1807F01D3012010BD4FF0FC
:10103000E02460610F21601700F07EFD0020A061B8
:1010400007202061002010BD7047704710F8411F35
:101050004078084370470000F8B501680446086806
:10106000CA684B6910F00F0F4FF000055AD003F01B
:10107000010602F49077374365D0C10705D0D1054A
:1010800003D5616C41F001016164410705D5D907C1
:1010900003D0616C41F002016164810705D5D90775
:1010A00003D0616C41F004016164010707D502F0CF
:1010B0002001314303D0616C41F008016164616C2F
:1010C00000293BD0800604D5900602D5204600F0CA
:1010D00005FC20684069616CC0F3801001F00801D4
:1010E000014320462BD000F0D2FB20684069400627
:1010F00021D52068143050E8001F21F0400140E85D
:101100000012002AF5D1E06BA8B16D494163E06B94
:10111000FFF7C6F8002811D0E06B416B01B0BDE8C5
:10112000F040084783060ED593060CD52046BDE84F
:10113000F84000F0D3BB2046FFF787FFF8BDFFF76C
:1011400084FF6564F8BD266B2023012E7CD1C60682
:101150007AD5D60678D508684868009048694FF077
:101160000206400640D5E16B086840680004000CA8
:10117000E8D0A28D8242E5D9E085886920282DD06B
:1011800020680C3050E8001F21F4807140E8001204
:10119000002AF5D12168143151E8000F20F0010038
:1011A00041E80002002AF5D12068143050E8001F01
:1011B00021F0400140E80012002AF5D184F84230C5
:1011C000256320680C3050E8001F21F0100140E832
:1011D0000012002AF5D1E06BFFF73EF86663A08DA0
:1011E000E18D401A81B22AE0A08DE18D401A81B2D2
:1011F000E08D0028A6D00029A4D022680C3252E845
:10120000000F20F4907042E80007002FF5D120680D
:10121000143050E8002F22F0010240E80027002F90
:10122000F5D184F84230256320680C3050E8002F57
:1012300022F0100240E80023002BF5D1666320461F
:10124000FFF702FFF8BDFFE705062BD5150629D5E8
:1012500094F841002128F5D1A068B0F5805F01D154
:101260002069B0B1206A411C216221680078486081
:10127000E08C401E0004000CE084E3D12068C168CB
:1012800021F08001C1602068C16841F04001C16067
:10129000D8E7206A0088C0F308004860206A801CF4
:1012A0002062E5E74006CDD55006CBD5CA6820467A
:1012B00022F04002CA6084F8413000F0ECF8C1E747
:1012C0007F18000870B5040004D094F84100002590
:1012D00010B106E0012070BD84F84050204600F0B7
:1012E00023F8242084F841002068C16821F40051CB
:1012F000C160204600F054FB2068016921F4904150
:1013000001612068416921F02A0141612068C168BA
:1013100041F40051C1606564202084F8410084F8E4
:1013200042006563002070BD30B585B00024009494
:101330000194029403940068184988422CD11848FB
:10134000816941F480418161816901F480410491A6
:10135000816941F0040181618069124D00F004004F
:1013600004904FF40070009002200190032003903D
:1013700069462846FFF702F92815CDE900046946B9
:1013800028460294FFF7FAF8002211462520FFF7BD
:101390005BFA2520FFF74AFA05B030BD003801405E
:1013A000001002400008014090F84230202B01D08C
:1013B0000220704721B11AB10023036300F04CBB37
:1013C000012070470B4910B5884212D14FF6FF73C8
:1013D00001220949074800F011F80648FFF736FED8
:1013E0002128FAD0BDE81040012203490148FFF747
:1013F000DBBF10BD1C010020200000202DE9F843B8
:10140000044690F841001F4616460D46202802D09B
:101410000220BDE8F8837DB176B100206064212010
:1014200084F84100FFF7A4F9A6848046E684A0680A
:10143000B0F5805F02D003E00120EAE7206910B137
:101440002E4600250EE000260CE08021204600F00C
:101450001EFBA0B9AEB116F8010B21684860E08C04
:10146000401EE084E08C43464FF0000200970028C5
:10147000EBD14FF04001204600F009FB30B10320D2
:10148000C7E735F8020BC0F30800E6E7202084F830
:1014900041000020BDE77047FEE7000070B5084D31
:1014A0004FF4005421462846FFF758F9C0F10100D7
:1014B000C2B221462846BDE87040FFF754B900008B
:1014C000001001400D4808B5416941F0010141613A
:1014D0004069002200F00100009011460C20FFF747
:1014E000B3F90C20FFF7A2F9002211460D20FFF7F7
:1014F000ABF9BDE808400D20FFF798B90010024095
:1015000070B586B0002418480094019402940394A6
:10151000816941F010018161816901F0100104913C
:10152000816941F020018161816901F0200104910C
:10153000816941F00401816180690C4E00F0040072
:101540004FF400550490002229463046FFF70BF96E
:1015500001200095CDE90104022003906946304640
:10156000FFF70CF806B070BD0010024000100140FB
:101570000D4810B50B490160002141608160C160D8
:101580000161416181610162416281620A21C1623E
:10159000FFF7F9FB002803D0BDE81040FEF75ABE64
:1015A00010BD0000003001403C0000200C4810B588
:1015B0000A4901604FF4E1314160002181600C2251
:1015C000C160C0E904128161C161FFF77BFE0028A0
:1015D00003D0BDE81040FEF73DBE10BD003801400D
:1015E0001C010020FEE7FEE7704710B5406A016865
:1015F0004A6822F003024A60416D41F010014165E2
:10160000012180F85110FFF7BDFB10BD10B5406AF5
:10161000FFF779FC10BD10B5406AFFF700FD10BD63
:1016200070B50546446AFFF7A3F8024628680068CB
:10163000800626D42068416821F020014160A0681E
:1016400018B96068B0F5827F16D02068416821F033
:10165000010141606421204600F044F808B12020D7
:1016600060650020E087012084F85100606D40B182
:101670002046FFF787FB70BD2068416821F0030119
:10168000E7E72046FFF73EFC70BD70B50546446AAB
:10169000FFF76EF802462868006880061ED42068AE
:1016A000416821F0200141606421204600F048F8A3
:1016B00018B1606D40F0200060652068416821F03D
:1016C000030141600020E086E087012084F851009A
:1016D000606D18B12046FFF755FB70BD2046FFF73F
:1016E0009DFC70BDF8B5044640684FF48273984283
:1016F00017D1A0684FF48065B0F5004F01D0A84223
:101700000FD12068066826F040060660606898429F
:1017100007D1A068A84204D100920B460022012103
:1017200003E000920B4600228021204600F018F8CA
:10173000002804D0606D40F0200060650320F8BDF3
:1017400038B50B46009204460022802100F008F8CC
:10175000002804D0606D40F020006065032038BD93
:101760002DE9F8431E46914688460446089DFEF73B
:10177000FFFF401B351AFEF7FBFF074625480068B0
:10178000C0F3CB30684338E0701C37D0FEF7F0FF71
:10179000C01BA84203D215B1009860B32CE02068AA
:1017A000416821F0E00141606068B0F5827F0BD1B3
:1017B000A068B0F5004F02D0B0F5806F04D120686A
:1017C000016821F040010160A06AB0F5005F09D115
:1017D0002068016821F4005101602068016841F42B
:1017E00000510160012084F85100002084F850006D
:1017F0000320BDE8F8830025401E00902068816822
:1018000038EA010004D000214945BDD10020F0E7AD
:101810000121F9E71C0000207047FEF7AFBF30B58B
:101820008FB028216846FEF794FC14210AA8FEF721
:1018300090FC01210804CDE9001000240294022547
:101840000491CDE907504FF4E01009906846FFF786
:1018500009F908B172B6FEE70F20CDE90A054FF489
:101860008060CDE90C4002210AA80E94FFF71EF813
:10187000002801D072B6FEE70FB030BD704710B53A
:10188000406A0021C185C184FFF7DFFB10BD0168FC
:101890000C3151E8002F22F4907241E80023002B14
:1018A000F5D10168143151E8002F22F0010241E81E
:1018B0000023002BF5D1016B012909D101680C31FE
:1018C00051E8002F22F0100241E80023002BF5D14F
:1018D000202180F8421000210163704708B590F87C
:1018E0004210222901D0022008BD82684FF48053A3
:1018F0009A4201D1016921B1816A9A421BD04AB151
:101900000AE00268816A5268C2F308020A80816AAA
:10191000891C08E0026972B10268526802F07F0215
:101920000A70816A491C8162C18D491E0904090C33
:10193000C18503D01BE002685268F1E70168CA68FC
:1019400022F02002CA600168CA6822F48072CA606C
:1019500001684A6922F001024A61202180F84210A0
:1019600000214163026B012A03D0FFF72BFD002009
:1019700008BD016301680C3151E8002F22F010020C
:1019800041E80023002BF5D101680A68D20602D590
:101990000A6849680091818DFFF756FBE7E7000070
:1019A00070B5044600680169E26821F440511143B2
:1019B00001612169A0680843616908432168CA6818
:1019C00041F20C639A430243CA6020684169A269EC
:1019D00021F44071114341611E492068884202D1BF
:1019E000FFF70AF801E0FEF7F7FF00EBC00101EB9B
:1019F0000012606864218000B2FBF0F3B3FBF1F3E6
:101A00006FF018067343B2FBF0F5B2FBF0F605EB8E
:101A10008305322303EB0515B5FBF1F5B6FBF1F6B3
:101A200005F0F00505EB0615B2FBF0F6B2FBF0F0A1
:101A3000B0FBF1F06FF01802504306EB800003EBAF
:101A40000010B0FBF1F0216800F00F00284488601E
:101A500070BD00000038014081628285C28500218E
:101A60004164222180F84210016921B10168CA68ED
:101A700042F48072CA6001684A6942F001024A6118
:101A80000068C16841F02001C160002070472DE965
:101A9000F041984617460E460446069D27E0681C0E
:101AA00025D02DB1FEF764FEA0EB0800A8421ED998
:101AB00020680C3050E8001F21F4D07140E800127B
:101AC000002AF5D12068143050E8001F21F00101F0
:101AD00040E80012002AF5D1202084F8410084F863
:101AE0004200002084F840000320BDE8F081206817
:101AF000006836EA000004D00020B842CFD00020B1
:101B0000F3E70120F9E700000148FFF7A5BA00005C
:101B10001C010020FEE700000FB4054B10B503A91F
:101B2000044A029800F028F810BC5DF814FB00008D
:101B3000DD1F0008240000200907090E002804DB2F
:101B400000F1E02080F80014704700F00F0000F171
:101B5000E02080F8141D704702E008C8121F08C179
:101B6000002AFAD170477047002001E001C1121F1E
:101B7000002AFBD1704700002DE9FF4F8DB00F46C2
:101B80000546002606E025280BD0DDE90F12904718
:101B90006D1C761C28780028F5D111B03046BDE8C0
:101BA000F08F0024A246A1460122EC4900E0044344
:101BB00015F8013F203B02FA03F00842F7D12878DC
:101BC0002A2810D06FF02F022878A0F130010929BF
:101BD00014D80AEB8A0102EB410144F0020400EB45
:101BE000010A6D1CF0E701CF5FEA000A03D544F457
:101BF0000054CAF1000A44F002046D1C28782E2813
:101C000017D115F8010F44F004042A280ED06FF004
:101C10002F022878A0F1300109290AD809EB89019F
:101C200002EB410100EB01096D1CF2E757F8049B40
:101C30006D1C28786C280FD006DC4C2817D068283B
:101C40000DD06A2814D104E0742810D07A280FD15E
:101C50000DE044F400140AE044F4801401E044F47C
:101C600040146978814202D104F580146D1C6D1C0A
:101C70002A786E2A1FD00CDC632A31D004DC002ABB
:101C80008BD0582A11D1A3E0642A68D0692A0CD1DC
:101C900065E0732A2ED004DC6F2A73D0702A04D139
:101CA0009BE0752A6FD0782A6ED01046DDE90F12BE
:101CB0009047761C50E1C4F30250022806D0032856
:101CC00009D0042801CF09D0066045E101CFF11702
:101CD000C0E9006140E101CF06803DE106703BE1D3
:101CE00017F8040B8DF8000000208DF80100EB467A
:101CF000012003E057F804BB4FF0FF3061074FF0BD
:101D0000000102D40DE008F10101884649450FDACF
:101D10008045F8DB1BF808100029F4D108E008F131
:101D2000010188468142FADB1BF808100029F6D130
:101D3000DDE90F23AAEB08008146214600F036F9C1
:101D4000304400EB080604E0DDE90F121BF8010B3C
:101D50009047B8F10108F7D221464846F7E00A213A
:101D6000C4F302534FF0000B0891022B04D001CFB3
:101D7000C117032B09D00AE0FF1D27F00707F7E87A
:101D8000020108E032E01FE020E000B2C117042B9E
:101D900001D140B2C117031E71F1000307DA4FF001
:101DA000000CD0EB0C006CEB01012D2302E02305AD
:101DB00004D52B238DF82430012303E0E30701D061
:101DC0002023F7E7984658E00A2110E010210EE0A2
:101DD00010204FF0000B08900CE010214FF0000B8A
:101DE00044F004044FF00809089103E008214FF083
:101DF000000B0891C4F30253022B04D001CF002141
:101E0000032B06D006E0FF1D27F00707F7E80201C5
:101E100003E080B2042B00D1C0B24FF000082307CA
:101E20002BD5702A07D0DDF820C08CF0100C5CEAAE
:101E30000B0C05D00EE040238DF82430012308E080
:101E400050EA010306D030238DF824308DF8252088
:101E500002239846DDF820C08CF0080C5CEA0B0CDD
:101E60000BD150EA010301D1630706D530238DF869
:101E700024304FF00108A9F10109582A04D038A2F2
:101E80000B9208AA0A920BE03AA2F9E75B46089A7D
:101E9000FEF76AF90B9B9B5C0A9A521E0A9213701A
:101EA00050EA0102F2D10A98ADEB000000F1200BDC
:101EB000600702D524F4803401E04FF00109D945D0
:101EC00002DDA9EB0B0000E0002000EB0B01414418
:101ED0000890AAEB010AE00306D4DDE90F232146AE
:101EE000504600F063F806444FF0000908E009A9E5
:101EF00011F80900DDE90F12904709F10109761C7C
:101F0000C145F4DBE0030CD5DDE90F232146504643
:101F100000F04CF8064404E0DDE90F123020904751
:101F2000761C0899481E08900029F5DC08E00A98FC
:101F30000A990078491C0A91DDE90F129047761C36
:101F4000BBF10001ABF1010BF1DC21465046DDE9AC
:101F50000F2300F019F806446D1C1BE60928010048
:101F6000303132333435363738396162636465660F
:101F700000000000303132333435363738394142D1
:101F800043444546000000002DE9F0410446002589
:101F90001E461746880404D405E039462020B04781
:101FA0006D1C641EF9D52846BDE8F0812DE9F0418D
:101FB000044600251E469046C80301D5302700E0A0
:101FC0002027880404D505E041463846B0476D1CFB
:101FD000641EF9D52846BDE8F081000013B54FF620
:101FE000FF73012269460248FFF708FA00981CBDFA
:101FF0001C01002070B5FEF7C9FBFFF710FCFFF7CE
:102000007FFAFFF75FFAFFF7D1FAFFF7B1FA012283
:1020100011491248FFF7C8F90823114A114912481B
:10202000FEF772FF08B1002070BD0D4D4FF4FA7637
:102030000EA0FFF771FD002410A0295DFFF76CFDD5
:10204000641C142CF8DB0FA0FFF766FDFFF726FADF
:102050003046FEF781FAEBE7200000201C0100204B
:1020600028000020000000203C000020526563652D
:102070006976656420446174613A200025303258E5
:10208000200000000D0A00000102020304050607FB
:1020900008090A0B0C0D0E0F1010000000000000C4
:1020A0000000010203040607080900000000010205
:1020B00003040000D42000080000002028000000D5
:1020C000581B0008FC2000082800002040050000E4
:1020D000681B00080102030405060708090A0B0C27
:1020E0000D0E0F10010000001000000000000000A5
:0C20F0000024F4000000000000000000CC
:04000005080000ED02
:00000001FF
